:020000040800F2
:1000000000000220356200083362000831620008F7
:10001000316200083162000831620008000000000F
:100020000000000000000000000000003362000833
:100030003362000800000000336200086119000804
:100040003162000831620008316200083162000844
:100050003162000831620008190D000831620008A1
:100060003162000825050008D1140008316200083B
:100070003162000831620008316200083162000814
:100080003162000831620008316200083162000804
:1000900031620008316200083162000831620008F4
:1000A00031620008316200083162000831620008E4
:1000B00031620008750700083162000831620008EB
:1000C00031620008316200083162000831620008C4
:1000D00031620008316200083162000831620008B4
:1000E00031620008316200083162000831620008A4
:1000F0003162000831620008316200083162000894
:100100003162000831620008316200083162000883
:100110003162000831620008316200083162000873
:100120003162000831620008316200083162000863
:100130003162000831620008316200083162000853
:100140003162000831620008316200083162000843
:100150003162000831620008316200083162000833
:100160003162000831620008316200083162000823
:100170003162000831620008316200083162000813
:100180003162000831620008316200083162000803
:1001900031620008316200083162000831620008F3
:1001A00031620008316200083162000808B5074B6F
:1001B0001B78132B09D80A21002000F04BFB0A21E1
:1001C0000620BDE8084000F045BB08BDAC0000209B
:1001D0000D4B10B50C46187005F052F90B4B1C6016
:1001E00001F0C6FB0A4B18600A4B00221A600A4B4A
:1001F000C3E900049A721A72DA605A721A751A61A7
:100200005A75064B186010BDAC000020000000209D
:10021000B4000020B000002094000020B8000020AE
:1002200030B1044B01221A70034B1860034B196064
:10023000704700BFBC000020C0000020C4000020A8
:1002400070B50E461446054650B101F091FB44B11D
:10025000844228BF0446074B1D60074B1EB91C6033
:1002600070BD0446F7E7001BB0FBF5F005FB00404E
:100270001860F5E700000020B4000020014B18686A
:10028000704700BF0000002038B50B4D04462878A9
:10029000A0420FD005F0EAF820462C7005F0F0F8E7
:1002A000064B002204F0FB041A60022C044B08BF2A
:1002B00001225A7538BD00BFAC000020B0000020FC
:1002C000940000202DE9F04701F052FB324E334BF1
:1002D000376893F800A0DFF8E890DFF8E88005467B
:1002E000C71BBAF1000F32D000221A702C4B1B68CA
:1002F0005BB3834228BF03462A4A1268C9F800202C
:10030000294A1360FFF752FFD8F800300133C8F8CC
:1003100000302648264A274CD9F80030217843601F
:10032000137843720175D8F80030417D0560C0E94B
:10033000033780F80AA0174621B300234375002332
:1003400023703B703560BDE8F0870346D4E7D9F8E9
:100350000030002BDDD0144A1168441AA342D8D8CB
:10036000B4FBF3F4002C08BF012404FB0313136057
:10037000FFF71CFFD8F800301C44C8F800404FF0CD
:10038000010AC6E70C4B1A780C4B53F82230002BAD
:10039000D5D09847D3E700BFB8000020BC000020AC
:1003A000C4000020C0000020B40000209400002001
:1003B00090000020C8000020AC000020CC630008A2
:1003C00000000020B0000020044B01221A70044BF2
:1003D0001870044B00221A60704700BFC80000204C
:1003E00090000020B000002008B501F0C1FA054BD4
:1003F000054A186000231360044A01211170044A61
:10040000137008BDB4000020B0000020C800002018
:1004100090000020014B1872704700BF940000202C
:10042000034A00231370034AC2E900339360704704
:10043000C9000020CC0000202DE9F04801F098FA16
:10044000304A1368C31A042B064659D91060082194
:100450002D4805F0DCFC002852D02C4D2B68002BD9
:100460004DD02A68B21AA2F12103B3F53B5F44D202
:100470002748284C01784B1CDBB2022B037044F850
:1004800021203CD9D4E90072002117EB020BA468AB
:1004900041F1000CBA42134628BF3B46BA4238BF6E
:1004A0003A461BEB04004CF10001A34228BF23464F
:1004B00094422CBFC3EB0403C3EB0203B3F57A6F82
:1004C0001BD80023032205F00BFA42F6E0648442B5
:1004D000114F28BF0446212C3B6838BF2124A3427A
:1004E0000BD0092005F026FF0C4B3C601E600C4B26
:1004F000012209201A7005F00FFFFFF791FF2E600F
:10050000BDE8F088DC00002000040240E00000208C
:10051000C9000020CC000020E8000020E4000020FA
:10052000D800002008B5082005F096FB30B1FFF791
:1005300083FF0820BDE8084005F088BB08BD000027
:1005400010B540F2016005F0A2FC144C40F68E009C
:1005500005F09DFC002211460823204605F05AFCB8
:10056000092005F0D9FE2146082005F07BFB00217B
:10057000082005F043FB082005F05EFB084A002335
:100580001360084A1360084A1360084A1360084A57
:10059000BDE810401370FFF743BF00BF00040240E6
:1005A000E0000020DC000020E8000020E400002043
:1005B000D800002010B5092005F0BCFE044B1C78C3
:1005C0000022E4B209201A7005F0A6FE204610BDF4
:1005D000D800002038B50546092005F0ABFE084BD1
:1005E0001C68092005F098FE3CB104F56A501830EB
:1005F000A8422CBF0020012038BD0120FCE700BF2D
:10060000DC00002010B501F0B3F9FFF7E3FF48B9B3
:10061000092005F08FFE044B09201C6805F07CFEC4
:10062000204610BD0024FBE7E800002010B501F0D3
:100630009FF9FFF7CFFF48B9092005F07BFE044B77
:1006400009201C6805F068FE204610BD0024FBE769
:10065000E40000202DE9F0414FF4C06005F017FCE4
:1006600040F2016005F013FC40F2026005F00FFC5F
:1006700040F68E001E4E05F00AFC0024374656F860
:100680003450E30005B30B2CE2B222D9112A08D072
:10069000A2F11200414241410C2C26D00F2A24D055
:1006A000C9B13B440022B3F80480012143462846E7
:1006B00005F0B0FB002128464346022205F0CCFBA2
:1006C0004146284605F0A0FB0134132CD7D1BDE8E4
:1006D000F0810121E0E7102AF6D13B4402229B88F9
:1006E0000021284605F096FBEEE70029F5D0D8E773
:1006F0004464000810B500231B4A194602EBC300EE
:10070000017142F833100133132BF7D140F6010089
:1007100005F0BDFB40F2014005F0C6FB134805F0B3
:1007200049FD002319461A460446104805F069FDA4
:100730000E480F49B4FBF1F1013905F075FD40F2A7
:10074000E7310A4805F072FD084805F063FD012114
:10075000064805F049FD1D2005F0DEFD0348BDE813
:10076000104005F05CBD00BFEC000020000400401C
:1007700040420F002DE9F8430121134805F038FDF0
:1007800000B301211048114E114F05F037FD01F063
:10079000EFF800258046B146EC0033191B7973B1A0
:1007A00056F83530A8EB0303002B08DBE05918B1ED
:1007B0003B19998805F028FB4C440023237101352F
:1007C0000C2DE9D1BDE8F88300040040EC000020C6
:1007D00044640008012808B50CD003D3022811D0C6
:1007E00000200EE00948012105F011FB003018BF80
:1007F000012006E00221054805F009FBB0FA80F06F
:10080000400908BD10210248EEE700BF0000024089
:1008100000040240122810B402460C4615D80C4BB6
:1008200053F8300088B10B2A03D9A2F11101012934
:100830000BD803EBC20399881CB15DF8044B05F09B
:10084000E1BA5DF8044B05F0DFBA5DF8044B704780
:10085000446400081228F8B504460D461ED8E9B1D4
:100860000F4B53F83030CBB10B2817D80D4F07EB97
:10087000C4061D2005F05EFD337953B901212046E1
:10088000FFF7C8FF01F074F80123284447F834004B
:1008900033711D20BDE8F84005F03EBDF8BD00BF36
:1008A00044640008EC0000202DE9F0411D2005F013
:1008B00041FD00240B4E0C4FA04656F83400E500D5
:1008C00040B173193D44998805F09EFA85F804807B
:1008D00047F8348001340C2CEFD11D20BDE8F041E5
:1008E00005F01ABD44640008EC00002038B5064D40
:1008F0000024605918B12B19998805F085FA08343D
:10090000602CF6D138BD00BF446400087047421E19
:1009100000F1BB03002012F8011F9A420844FAD1EB
:100920007047000070B5B0B03F4B009340F25933B0
:100930000993002306468DF804301C460DEB030294
:1009400001331E2B5471F9D14FF47A7240F2033304
:100950000125CDE90A230021022314220FA88DF8D6
:1009600039308DF830408DF831408DF832508DF8A7
:1009700033408DF834508DF835408DF836408DF881
:1009800037508DF838408DF83A5004F085FE142227
:10099000002116A88DF85040159404F07DFE142215
:1009A00000211CA8ADF86C408DF86E408DF86F509A
:1009B00004F072FE64238DF8843014221B4B2293C2
:1009C000002127A88DF885508DF88C408DF88D502A
:1009D0008DF88E40ADF89050CDF89240CDF896400D
:1009E000ADF89A4004F058FE68468DF8B0408DF896
:1009F000B1408DF8B2408DF8B3408DF8B4408DF819
:100A0000B5408DF8B6408DF8B7408DF8B8402F94BA
:100A1000FFF77DFFC0222F906946304604F031FE7B
:100A2000304630B070BD00BFEFBEADDE01EEFFC09E
:100A300030B50446B1B068B1604D614B2A689A4246
:100A40000AD06846FFF76EFFC0226946204604F0D0
:100A500018FE002031B030BD2846FFF758FFD5F80A
:100A6000BC308342EDD1C0222946204604F009FE65
:100A70002379A26A1D2B84BF00232371636A213B63
:100A8000B3F53B5F24BF40F259336362A2F10A0120
:100A900040F2DE33994205D83221B2FBF1F301FB7B
:100AA000132313B14FF47A73A36294F82C3094F8A3
:100AB0003920072B84BF032384F82C3094F82D3081
:100AC000072B84BF032384F82D3094F82E30092B94
:100AD00084BF002384F82E3094F83130642B84BF17
:100AE000002384F8313094F83330322B84BF002354
:100AF00084F8333094F83630642B84BF002384F8B4
:100B00003630082A04D84FF48A73D340DB0702D466
:100B1000022384F83930B4F86C30C3F30903A4F825
:100B20006C3094F86E300A2B84BF0A2384F86E3040
:100B300094F88430C82B84BF642384F8843094F8FC
:100B40008D30013B092B84BF012384F88D30B4F82C
:100B50009030C3F3090373B3A4F8903004F19C01FF
:100B600004F192031A7802F00F0203F8012B994264
:100B7000F8D194F8B1300B2B84BF002384F8B13046
:100B800094F8B230052B84BF002384F8B23094F877
:100B9000B330142B84BF002384F8B3300022631DCC
:100BA000233413F8011B012988BF03F8012C9C4250
:100BB000F7D101204EE70123CEE700BF0000060871
:100BC000EFBEADDE2DE9F041E0B0E0B1C02201465C
:100BD000684604F056FD002368462F93FFF797FE02
:100BE0002F9005F0ABF80221072005F0DFF8224A2C
:100BF0001746136813F48034FBD113F0F00F05D0BF
:100C000005F0A8F8204660B0BDE8F0811B4D1C4EF1
:100C10002B68DFF8708043F001032B6006F1774307
:100C200003F57A0330465DF8031005F0A7F83B683A
:100C300013F48034FBD113F0F00F04D02B6823F0B1
:100C400001032B60DCE704364645E7D12B6823F02F
:100C500001032B6005F07EF8C02209490DEB02006C
:100C600004F00FFDC0220DEB0201684604F0FAFC0F
:100C7000B0FA80F04009C6E70C3C0240103C02404C
:100C800000000608C000060838B54FF4C06005F043
:100C9000FEF840F68E0005F0FAF8164A164D136875
:100CA00043F080731360154B154A00241C601368D1
:100CB00043F00103136001231A462146284605F03C
:100CC000A9F8062005F028FB2946012004F0CAFFF8
:100CD0000121084604F092FF012004F0ADFF094B0A
:100CE0001C60094B1C60094B1C60094B1C70094BB4
:100CF0001C7038BDFCED00E000000240041000E074
:100D0000001000E08C0100208801002094010020E8
:100D10009001002084010020F8B5012004F096FF26
:100D200000F026FE144B15491A68154B1C7824B1A7
:100D30000C68144D141BAC420DD91F78124D134E84
:100D4000134C07F0FF0C3FB928600A6001221A70AB
:100D5000C6F800C02270F8BD0B68D31A1FBF03F598
:100D6000244310330B4FB3FBF7F3336001232860A8
:100D70000A602370EFE700BF041000E08801002044
:100D8000840100203F1640008C01002094010020C7
:100D90009001002020480100034B1A7802F0FF0068
:100DA0000AB100221A70704790010020014B1868A8
:100DB000704700BF94010020014B1868704700BFC6
:100DC0008C0100200A4A1178034601F0FF0069B146
:100DD000084909685B1A45F6C0518B424FF0000381
:100DE00003D91370044A136070471846704700BF58
:100DF000840100208C0100209401002008B5062009
:100E000005F098FA054A00231370054A1360054A55
:100E100006201370BDE8084005F07EBA900100205E
:100E20009401002084010020024A00231370024A2A
:100E300013607047A4010020A0010020154B10B5DD
:100E400000241C70144B1C60144B204621461C705F
:100E500004F0F6FB124B1C60124B1C70124B1C6012
:100E6000124B1C60124B1C70124B01201C7004F0C2
:100E7000F3FE10B1012004F0E9FE0F4B1C700F4B84
:100E80001C700F4B1C700F4B1C700F4B01221A7003
:100E900010BD00BFA5010020EC010020D4010020FE
:100EA000F0010020C8010020CC010020DC0100205E
:100EB000D9010020E0010020D8010020D601002047
:100EC000D7010020D5010020B001002038B52A4C00
:100ED0002A4D20602A4801602A490A602A4A136084
:100EE0002A4B049A1A602A4B059A1A60294B069AD3
:100EF0001A60294B079A1A604FF4C06004F0C7FFCC
:100F000040F2016004F0C3FF40F68E0004F0BFFF22
:100F1000022301220021214804F07CFF0222102339
:100F20000021284604F076FFFFF7AEFEFFF708FB2E
:100F30002946102004F096FE0021102004F05EFEE9
:100F4000102004F079FE0A2005F0E6F9206800F090
:100F500023FB134B00241C60124B1C70124B1C70A3
:100F6000124B1C60124B1C70FFF75EFFFFF766FF11
:100F7000104B1C7038BD00BFF4010020000402407B
:100F8000D00100209C010020A8010020E4010020E5
:100F900098010020AC010020C401002000000240A4
:100FA000B4010020A6010020A7010020C0010020FC
:100FB000BC010020B0010020014B1870704700BF39
:100FC000BC0100202DE9F84F00F0D2FC04460020BF
:100FD000FFF700FC02218046A548DFF8E4A2A54FF8
:100FE00004F015FFA44BB0FA80F61A787609B242E5
:100FF00018BFCAF80040DAF800201E70A21A322A80
:101000003B7802D99E4218BF3E7097F800B0BBF102
:10101000000F00F0408283F001034FF00009974D6C
:101020002A78042A3ED8DFE812F005003A005E0074
:10103000B200E300924B1A7822B1B8F1000F01D14F
:1010400083F800801B78002B40F05281B8F1000F2C
:1010500000F04E818B4B1B78002B40F0498101231F
:101060002B70894B1C60FFF797FE08B1FFF79EFEBF
:1010700000F088FA3E70CAF800402B78002B00F090
:101080003781FFF789FE08B1FFF790FE7D4B1B7893
:10109000002B00F08581BDE8F84FFFF7C5BEB8F121
:1010A000000F02D1FFF7CAFEE7E7774B1B68E31A90
:1010B000B3F57A7FE5D3754A00231370744A137031
:1010C000744A1370744A1370744A01211370744A7D
:1010D0000846137004F0B4FA724B1B6803B19847CA
:1010E00002232B70C9E7B8F1000F39D0664B1B689B
:1010F00041F28732E31A9342D4D869490A78FAB99F
:1011000040F6B73083421BD901230B7063490B7043
:10111000604B1A70644B1B6803B19847BBF1000F1A
:101120001BD00021012004F08BFAB9F1000FA4D0EC
:10113000574A137801331370544B01221A709CE7FD
:10114000554A11780029E9D1B3F5FA6FE6D30123A6
:101150001370504A1370534BDDE701210846E2E754
:101160000121084604F06CFA484B1B785BB1484BF0
:101170001B78002B96D004232B704C4B1C604C4BDF
:1011800083F8008079E74B4B1C600323A9E713B178
:10119000484B00221A60BBF1000F10D00021012043
:1011A00004F04EFAB9F1000F0CD0394B01221A703D
:1011B00004232B703D4B00221C603D4BBEE70121F8
:1011C0000846EDE73B4B1B68002B3FF456AFE31A94
:1011D00041F2873293427FF650AF324B1B6803B126
:1011E0009847354B1B68002B3FF45CAF984759E795
:1011F000BBF1000F66D00021012004F021FA2B4F33
:10120000B9F1000F04D0224A3C6013780133137007
:10121000274EB8F1000F68D033780BBB1C4B1A78FF
:101220009846CAB11F4B1B6803B19847234B1B68F4
:1012300093B11A4A98F800001278002A45D00A287B
:1012400007D901380A21B0FBF1F201FB120001308D
:10125000C0B21430C0B29847FFF7F0FD01233370DD
:101260003B6842F20F72E31A93427FF606AF19E72A
:1012700000000240D9010020E0010020A50100206B
:10128000B0010020A4010020EC010020C8010020D2
:10129000D4010020D8010020D6010020D701002071
:1012A000D501002098010020AC010020CC010020D5
:1012B000E8010020F0010020E4010020D00100201E
:1012C000DC0100200121084697E7744A1278002AC1
:1012D000C1D00A2807D901380A21B0FBF1F201FB7D
:1012E00012000130C0B20A30B4E786F80080B7E7D8
:1012F000FFF760F96A4F0646002853D0FFF782F9DE
:101300000646FFF793F93B78DFF8C08102461BB130
:10131000D8F80030B3420AD0624BD3F80090B9F14C
:10132000000F04D01EB1002301213046C84701231D
:101330003B70C8F8006000F025F95B4B1B780BB1DF
:10134000FFF772FD3B785BBB00F012FB574F064680
:101350000221574804F05BFD3A78A2F10B03122BEF
:10136000514B65D81A78002A7CD0012A48D0514DBB
:1013700000F018F92B789BB14F4E336813B1E31A84
:10138000642B0BD93B78A3F10B02122A7AD84B4B72
:101390001B6813B1214600209847346000232B704E
:1013A000BDE8F88F2046FFF715F90028CAD03B7832
:1013B000002BC9D03B4B3E701A68DFF8109198465D
:1013C000D2B1D9F80060A6F12103B3F53B5F09D390
:1013D00000F08AF940F25936A0F12103B3F53B5FE2
:1013E00038BF0646304600F085F90023D8F8008063
:1013F000224619463046C0470023C9F80030A1E70D
:101400002F4B1B68F31A002837D0B3F5FA7F0CD89E
:10141000294D2A6812B1B21A642A06D9274B1B68D3
:1014200013B13146002098472E60FFF7FDFC9EE780
:101430001978B9B101299AD1214B1B68F31AE0B18F
:10144000B3F5FA7FF1D81C4D2B6813B1F31A642B56
:10145000EBD90A2A0CBF1B4B1B4B1B68002BE3D09C
:101460009847E1E7002882D12A78002A7FF47FAFED
:1014700001221A70124B1E6079E7B3F5FA7F7FF6EE
:1014800076AFD2E70A2B0CBF0E4B0F4B1B68002B1D
:1014900083D0984781E799465B46C0E5D801002094
:1014A000A7010020F4010020A4010020BC010020BD
:1014B00000000240A6010020B4010020C401002069
:1014C000A0010020A80100209C010020C0010020F4
:1014D00038B5102004F0C0FBD8B10E4C00F048FA2B
:1014E0002268821A092A05460ED910210A4804F0FA
:1014F0008EFC48B1094B1B782BB9094B1B7813B9EB
:10150000084B01221A7025601020BDE8384004F015
:101510009DBB38BDB801002000040240A501002099
:10152000A7010020A6010020074A00231370074AE4
:101530001370074A1360074A1370074A1370074A6B
:10154000C2E9003393607047F9010020F8010020E0
:10155000FC0100200D0200200C02002010020020DF
:1015600038B5064B1D6804460A462DB120B101234B
:101570000021A847024B1C6038BD00BF1C020020A0
:101580000002002008B5FFF7CFFF024B00221A60CF
:1015900008BD00BF00020020014B1860FFF7F2BF3A
:1015A0001C0200202DE9F047FFF7F6FB30B3FFF7F0
:1015B00003FC454C0646FFF7F9FB2268804642B122
:1015C000B21A41F288339A4203D9FFF7ADFFFFF711
:1015D00015FC2660B8F1000F10D0A8F12103B3F577
:1015E0003B5F05D3FFF7A0FFBDE8F047FFF706BC60
:1015F000364B1A781F461AB100221A70BDE8F087E0
:10160000334D2B78022B9FBF5A1C2A70314A42F867
:1016100023802B78022BF1D92E4ADFF8C4A0DFF803
:10162000C480D2E900439C4288BF2146926884BFAF
:101630001C460B46934228BF13469C4238BF1C46AB
:1016400042F6E0618C4228BF0C469AF80030212C0B
:1016500038BF2124D1468BB931462046FFF780FFA1
:101660001D4B1C601D4B1E60012388F800308AF85A
:10167000003000232B7001233B70BFE798F8003047
:10168000BBB1164B1B6840F6B832F31A934210D820
:10169000114B1A681E2353433233462202FB043493
:1016A0006423B4FBF3F48C4228BF0C46212C38BFD2
:1016B000212431462046FFF753FF002388F80030ED
:1016C00089F80030D5E700BFFC010020F8010020B8
:1016D000F90100201002002004020020080200206E
:1016E0000D0200200C020020014B1868704700BF5B
:1016F00000020020014B1860704700BF000200206C
:1017000070B50C461646054698B191B100F022F925
:10171000084B1C60084B1E60084B1D70084B0121D4
:1017200012201970FFF776F800F022F9054B2044DB
:10173000186070BD28020020240200202D02002025
:101740002C02002020020020044B1A7822B1002134
:1017500012201970FFF75EB8704700BF2C020020FE
:10176000024B1878003018BF012070472C0200206F
:1017700070B5174C2378012B054604D01AD3022BE1
:1017800019D000230EE0134E3368C31A002B11DB6F
:1017900000211220FFF73EF80F4A1378013BDBB21D
:1017A00013700BB9237005E0022323700B4B1B68E9
:1017B0001D44356070BD074E3368C31A002BF9DB3A
:1017C00001211220FFF726F801232370044BEEE7D6
:1017D0002C020020200200202D02002024020020E4
:1017E00028020020014B01221A707047F8020020E5
:1017F00008B5FFF7A9FF01211220FFF70BF8034BF3
:10180000034A1B686433136008BD00BF0003002057
:10181000FC02002008B5054B0A461878002102F0AA
:10182000A5FABDE80840FFF7E3BF00BFF1020020C2
:10183000FFF7DEBF642237210220FFF761BF0000FF
:1018400010B50D4C2378B3FA83F35B092370FFF7CF
:101850002BF80120FEF7B8FD2078FEF7DBFD074BE3
:101860001A781D2A04D81978054B22780B445A712E
:10187000BDE81040FFF7BCBFF0020020F1020020DD
:101880003002002038B50C4B1C78E5B20A2D11D17E
:1018900001F01CFC013090FBF5F405FB1404E4B2EC
:1018A000204601F00BFC054B83F82E40BDE8384084
:1018B000FFF79EBF38BD00BFF102002030020020BC
:1018C0000138C0B21D2838B52CD8174C174D2070E0
:1018D00023781D2B04D82278154B13445B792B7089
:1018E000FEF7E2FFFFF702F80020FEF76DFD20781B
:1018F000FEF7CAFC0021084603F0A2FE2878FEF796
:1019000089FD0B49207800F0E7F92078FFF754FBB8
:10191000207803F0EFFD03F0C9FDFFF769FF054BE9
:1019200001221A7038BD00BFF1020020F002002031
:1019300030020020F802002010B550B133B111463A
:10194000FEF76EFCBDE81040FFF752BFFEF778FCD3
:10195000F8E710BD014B00221A607047FC0200201E
:10196000024A136801331360704700BF0003002070
:10197000014B1868704700BF000300202DE9F04FAD
:101980008548864D864C874EDFF85482864FB7B027
:1019900004F096FB002004F0A3FC42F6031004F0D0
:1019A00097FC04F0A9FC04F0AFFC4FF4C06004F015
:1019B0006EFA40F2016004F06AFA40F2026004F04C
:1019C00066FA47F6F07301220021784804F022FA03
:1019D000842301220021764804F01CFA4FF460436E
:1019E00001220021734804F015FAFEF733FEFEF7DA
:1019F00081FEFEF78BFF2846FFF71AF82B7923703C
:101A0000002800F0BA8023781D2B00F2AC802378E8
:101A10002B445B7933706B6A213BB3F53B5F02D398
:101A200040F259336B625D48DFF8B0A100F0DEF898
:101A30002078696AFEF7CCFB5849207800F04CF911
:101A4000D8F80000784003F02FFE5B4B03935B4B0C
:101A500002935B4B01935B4B5B4A5C4900935C4890
:101A60005C4BFFF733FA2078FFF7A6FA3078FEF7E1
:101A7000D1FC03F037FD207803F03CFDD8F800706E
:101A80003846FFF79FF908B1FFF77CFDFFF79AFA98
:101A9000FEF718FC384603F041FD3846FFF768FEB4
:101AA000FFF75EFE834670B9DFF83891D9F8002061
:101AB0004AB1D9F80020BA4205D801461220FEF7F3
:101AC000A9FEC9F800B09AF80030002BD6D0DFF894
:101AD0001891D9F80030FB1AB3F57A7FCED9FEF70A
:101AE00005FFFEF7E1FE3C4B0693FEF7C7FB2378AC
:101AF0000F908DF81C3005220DF1180BA95C02F82F
:101B00000B100132232AF9D122781D2A05D8227818
:101B1000317836AB1A4402F8BB1C204920785A466B
:101B200000F05EF9002258468DF847203592059264
:101B3000FEF7EDFE35905846FFF744F8059A0490FD
:101B40001046FEF741FC3078FEF764FC049921B1A1
:101B5000C0225946114803F094FD204AC9F800708C
:101B6000002313708AE700232370227833702378D0
:101B70002A712B4432785A714DE7307040F2593354
:101B80006B6223781D2B9FBF23785B195B793370C1
:101B900040F20333AB8546E7786B00083002002043
:101BA000F1020020F00200200DD001C00000024030
:101BB000000402400008024015180008351800080B
:101BC00031180008E517000841180008C11800087E
:101BD0003919000885180008EFBEADDEF8020020B4
:101BE00000030020FC020020F4020020826A40F280
:101BF000DE33A2F10A01994205D83221B2FBF1F39A
:101C000001FB132313B14FF47A73836290F82C30E5
:101C100090F83920072B84BF032380F82C3090F8EC
:101C20002D30072B84BF032380F82D3090F82E3001
:101C3000092B84BF002380F82E3090F83130642BBC
:101C400084BF002380F8313090F83330322B84BFCA
:101C5000002380F8333090F83630642B84BF0023A3
:101C600080F83630082A04D84FF48A73D340DB0753
:101C700002D4022380F83930B0F86C30C3F3090382
:101C8000A0F86C3090F86E300A2B84BF0A2380F8DD
:101C90006E3090F88430C82B84BF642380F8843081
:101CA00090F88D30013B092B84BF012380F88D30E3
:101CB000B0F89030C3F3090363B1A0F8903000F19D
:101CC00092039C301A7802F00F0203F8012B98421D
:101CD000F8D170470123F0E7092813B50C466FD1FE
:101CE000886A00F08BFC94F8322094F8311094F854
:101CF000300000F0D1FE94F8341094F8330001F075
:101D000001F994F8372094F8361094F8350002F071
:101D10007DFF04F13C0394F83A2094F8391094F8CC
:101D2000380003F09FF904F15802616D94F85000F7
:101D300002F03EF904F1700394F86F2094F86E10ED
:101D4000B4F86C0002F04CFB94F8851094F8840011
:101D500000F07CFD94F88C10D4F8880003F0A0F813
:101D600004F19C03B4F8902094F88E1094F88D0040
:101D7000009304F1920300F08BF994F8B11094F8F9
:101D8000B00001F01DFE94F8B31094F8B20001F019
:101D9000AFFE94F8B40001F01FFC94F8B50001F018
:101DA000B1FB94F8B60001F0DBFA94F8B70001F04B
:101DB000E5FA94F8B80002B0BDE8104001F0ECBAC2
:101DC000052806D191F82D1094F82C0003F02EFB75
:101DD00089E70A2887D191F82E0001F06FF982E790
:101DE000092873B506460D46144640F0868000F07B
:101DF000FFFBA06295F82C3084F82C3095F82D303C
:101E000084F82D300A2E40F0838001F05FF984F8C9
:101E10002E0004F1320204F1310104F1300000F02F
:101E200049FE04F1340104F1330001F075F804F1C6
:101E3000370204F1360104F1350002F0F5FE04F139
:101E40003C0304F13A0204F1390104F1380003F0D3
:101E50002FF904F1580204F1540104F1500002F08A
:101E6000C7F804F1700304F16F0204F16E0104F18C
:101E70006C0002F0E9FA04F1850104F1840000F03D
:101E8000EFFC04F18C0104F1880003F013F804F175
:101E90009C0304F19002009304F18E0104F192037B
:101EA00004F18D0000F03CF904F1B10104F1B0003F
:101EB00001F092FD04F1B30104F1B20001F030FE33
:101EC000192E2AD104F1B40001F08CFB95F8B5303D
:101ED00084F8B5301B2E2AD104F1B60001F046FA81
:101EE00095F8B73084F8B7301D2E2AD104F1B80028
:101EF00002B0BDE8704001F055BA8B6A93620528C4
:101F00007FF478AF02F12D0102F12C0003F0A0FA6A
:101F100095F82E3084F82E307BE795F8B43084F8AD
:101F2000B4301A2ED2D104F1B50001F0F1FA95F8CF
:101F3000B63084F8B6301C2ED2D104F1B70001F0CF
:101F400023FA95F8B83084F8B83002B070BD0000BC
:101F5000F0B5264A00238BB01C461746995C29B978
:101F60000AA901EB8401013441F8283C01330A2B12
:101F7000F4D1002C37D003F0BBFB90FBF4F303FB50
:101F800014000AAB03EB8000012650F8285C7E5554
:101F900003F0AEFB434203F00F0300F00F0058BF05
:101FA0005842134B585503F0A3FB044603F0A0FB23
:101FB000634203F00F0304F00F0458BF5C42434236
:101FC00003F00F030B4A00F00F0058BF5842E4B271
:101FD000C0B232F8153006FA04F406FA00F00443F1
:101FE0005C4022F815400BB0F0BD00BF0903002093
:101FF0001C0300202803002038B5124B124C134854
:10200000134901221A70134A00231360124A1370F5
:10201000124A1370124A1360124A13701A461A5564
:102020001A5421F8132001330A2BF8D1FFF790FF3F
:102030000D4D0024285D00210134FEF7EBFB0A2C36
:10204000F8D138BD08030020090300201C0300203C
:1020500028030020040300201303002015030020A0
:102060001803002014030020EA69000808B5FFF7F0
:10207000C3FF024B00221A6008BD00BF18030020F6
:10208000024A137883F00103137070471303002092
:102090002DE9F0431C4DDFF87CC028701B48079EDB
:1020A0000170DFF87490DFF8748000210C46284638
:1020B000E64642FA01F505F00107ED0748BF013495
:1020C00001F80C7048BFE4B24F00CBB15D5C05F085
:1020D0000F0509F80150AEB136F8115028F8075035
:1020E00001310A29E5D104B1047003781BB9012339
:1020F00003708EF80030064B00221A70BDE8F083A2
:102100007D18E4E73546E9E70803002013030020C3
:1021100014030020090300201C03002028030020D2
:10212000F0B5059C10B1144D2D78057011B1134810
:10213000007808706AB10021114D084601264F5DF4
:102140001FB106FA01F7384380B201310A29F6D1EE
:10215000108033B10B4A11681960516859601289B7
:102160001A8144B1084B03F1140253F8041B44F8DC
:10217000041B9342F9D1F0BD080300201303002093
:10218000090300201C030020280300202DE9F0474C
:10219000374E037A3370037D13B1364B00221A7029
:1021A000354BD0E90021186800B91A6018689042D0
:1021B0004FD88908052938BF0521084490423CBF03
:1021C00052181A602D4A28BF18601368294D2C4FE9
:1021D000013313602B789BB92A4B1B7883B92A4CA7
:1021E0002A48227801780132D2B28A42227084468B
:1021F00006D3092923702ED801310170FFF7A8FEFC
:10220000DFF88C80DFF88C90DFF88CA000243B5D39
:10221000ABB12146307802F029FC38F814302A7826
:10222000584014F80930134403F00F0380B21841EA
:10223000C30704D50A211AF80400FEF70BFB01348A
:102240000A2CE4D12B780133DBB20F2B88BF00239B
:102250002B70BDE8F0870E491A46FA5421F8132076
:1022600001330A2BF9D101238CF80030C6E700BFF7
:10227000260300201503002018030020040300207B
:10228000090300201303002014030020080300208A
:10229000280300201C030020EA690008F4EEC10AAC
:1022A000F1EE10FA04D5B4EEC01AF1EE10FA0ED920
:1022B000B5EEC01AF1EE10FA0BD5F4EEC10AF1EE4C
:1022C00010FA06DDB4EEC01AF1EE10FA13DB0120AD
:1022D0007047B5EEC01AF1EE10FA11DBF4EEC10A48
:1022E000F1EE10FA0CDDB4EEC01AF1EE10FAACBF4C
:1022F000012000207047B5EEC01AF1EE10FAF2DAB4
:102300000020704710B501210446FEF783FAFFF75D
:102310002FFB024B43F8240010BD00BF4C030020EC
:10232000154B164A164970B51A6000230B60154903
:10233000154E0B6015490A60154A1360154A0025B1
:1023400013602C4646F82540E8B200210135FEF71F
:1023500061FA0C2DF6D1104B104A1C605C609C6039
:10236000DC601C610E4B146054609460D460146196
:102370004FF47A721A6070BD08000020CDCCCC3DBD
:102380003C030020400300204C0300200C000020F0
:102390004403002048030020AC03002098030020E1
:1023A0000400002070B5114E01240025052CE0B278
:1023B00002D9C31F042B04D80021FEF72BFA46F8DC
:1023C000245001340C2CF1D1094A0A49002313602E
:1023D00053609360D36013610B604B608B60CB6084
:1023E0000B61054B4FF47A721A6070BD4C030020EC
:1023F000AC03002098030020040000202DE9F74FD3
:102400000546FFF7B5FA00246A4E0746A046E0B23B
:1024100074B106280CD056F824304FEA84093BB139
:10242000FB1A092B04D90021FEF7F4F949F80680BC
:1024300001340C2CEBD16B7A3BB15F4A13680A2B49
:1024400000F2AD804FF47A7313602B69002B00F01B
:10245000AB80642B28BF642307EE903AF8EEE77A4E
:10246000B2EE046A87EE867A54485549554E564C6A
:10247000564D574FCDE900010022D5ED006ADFED42
:10248000553ADFED555AC1ED006AFDEEC77A94ED7D
:10249000007A17EE903AD6ED007A80ED007A012BA3
:1024A000B8BF0123C7ED007AB3EE0C3A33EE665A9B
:1024B000B0EE474A95EE274A0132934223EEE65AA0
:1024C00077EE674AA7EE875A64EE864AA4EE257A2D
:1024D000E4EEA57AE5EE256AE8D1DFF80881DFF8B9
:1024E000D4A0DFF8D4B0C5ED006A84ED007AC6ED63
:1024F000007A4FF00109B8EC011AD7ED000A96ED09
:10250000000A5FFA89F1FFF7C9FEA0B1334B03EB74
:10251000890050F8042C013240F8042C5AF82900A4
:1025200048B9DBF80030B2FBF3F003FB102212B91C
:102530000846FFF7E7FE09F10109B9F1060FDAD104
:10254000274FDFF8A480DFF8A4A0DFF8689000260A
:1025500016F80830B7EC011A43B394ED000A009B5B
:10256000D3ED000AFFF79AFE98B109EB86025AF8FC
:102570002630D269F01D0133C0B24AF8263042B984
:102580000D4A1168B3FBF1F201FB12330BB9FFF7EF
:10259000B9FE0136052EDBD103B0BDE8F08F323B2A
:1025A000092B98BF0A234FE7012355E795ED000A51
:1025B000019BD5E74C0300200400002044030020C9
:1025C00048030020080000203C03002040030020B6
:1025D0000C000020BE9F2A400AD7233C980300200D
:1025E000F0640008DC64000804650008AC03002007
:1025F000014B1868704700BF04000020A0F10A02D8
:1026000040F2DE339A42074A07D83221B0FBF1F399
:1026100001FB13030BB9106070474FF47A7313601A
:10262000704700BF040000202DE9F74F464A90F89C
:1026300008B01478D0E9008A8146AAF12103002C61
:102640003ED0817A002938D0B3F53B5F35D20024E3
:10265000147021464C223D48DFF8009103F01CF82D
:102660003B4B3C4A59F8246026B3BAFBF6F60A2ED7
:1026700038BF0A26E05CA55CBBF1000F02D1014621
:1026800028460D46344F08EB060147F8251047F859
:10269000201057F8251041450CD80A212846CDE9CD
:1026A0000032FEF7D7F857F82510DDE900320E4466
:1026B00047F825600134052CD4D103B0BDE8F08F74
:1026C000B3F53B5FF9D2254B53F82420002A37D0CD
:1026D0001F4BE55C1F4BE65CBBF1000F02D033469D
:1026E0002E461D461C4B53F82510414516D8BAFB03
:1026F000F2F70A210A2F284638BF0A2701930092D1
:10270000FEF7A8F8019B009A53F82510394441457B
:1027100036BF474443F8251043F8257099F80A302E
:1027200073B10A4D55F826300133934245F82630EF
:1027300006D30A213046FEF78DF8002345F82630EF
:102740000134052CBFD1B8E758040020C003002095
:1027500020650008256500080C0400200C650008B1
:102760004C2270B500210F4802F096FFFFF700F9E8
:102770000D4A002342F823000133132BFAD10B4EEC
:102780000B4D0024305D0021FEF744F8285D002148
:102790000134FEF73FF8052CF4D1064B01221A70E4
:1027A00070BD00BFC00300200C040020206500089D
:1027B000256500085804002008B5FFF7D1FF024B3B
:1027C00001221A7008BD00BF58040020F8B50C4B58
:1027D0000C4E0D4D64221A700C4B00241C700C4BD7
:1027E0001C600C4B01221A70274626F81470285DD5
:1027F00000210134FEF70EF80A2CF6D1F8BD00BF17
:102800006E0400205A040020EA69000859040020E0
:10281000700400207404002008B5FFF7D7FF024BB6
:1028200000221A6008BD00BF70040020054A13781A
:10283000C72B8CBF00230A331370034B01221A707D
:10284000704700BF6E04002074040020024B187013
:10285000024B01221A7070476E040020740400209D
:1028600010B1034B1B78037009B101230B70704743
:102870006E0400202DE9F74F4E4F037A3B70037D25
:1028800013B14D4B00221A70437A13B14B4B012206
:102890001A704B4A1168D0E9004301B914601168FD
:1028A000A1425ED89B08052B38BF05231944A142DD
:1028B000414D2EBF11601B1913602B78002B39D1AD
:1028C0003E4E3278002A35D09A464FF06408514681
:1028D000387802F0CBF83B4B1B78632B834643D808
:1028E000C3F16403DCB24FF0000901214BFA09F295
:1028F000D00710D5019102F0FBFE90FBF8F202FB2D
:102900001800C0B20199844282BF01FA09F22BEA91
:10291000020B1FFA8BFB09F10109B9F1100FE5D188
:10292000294B23F81AB00AF1010ABAF10A0FCED1E5
:1029300000233370244E254F002436F814302A78B3
:102940001341DB0703D50A21385DFDF783FF01340E
:102950000A2CF2D12B780133DBB20F2B88BF002376
:102960002B7003B0BDE8F08F642BD9D0C82B28BFE3
:10297000C823A3F16404E4B24FF0000901214BFA2B
:1029800009F2D20710D4019102F0B2FE90FBF8F2E6
:1029900002FB1800C0B20199844282BF01FA09F219
:1029A0004BEA020B1FFA8BFB09F10109B9F1100F79
:1029B000E5D1B5E775040020590400207404002017
:1029C000700400206E0400205A040020EA69000808
:1029D00070B5064E064D00242146307802F046F8C8
:1029E00025F8140001340A2CF6D170BD940400209F
:1029F0007A04002038B50B4B0B4D00241C700B4B98
:102A00001C700B4B01221A700A4B1C700A4B1C6085
:102A1000FFF7DEFF285D00210134FDF7FBFE0A2CE5
:102A2000F8D138BD77040020EA6900087804002056
:102A300079040020760400209004002008B5FFF7F8
:102A4000D9FF024B00221A6008BD00BF900400208D
:102A50000E480F4A03780F492BB9012303700A204F
:102A600010700B7070470878137838B1632B85BFEE
:102A700000230B700A335A23137070471BB90123CC
:102A80000B700A23F8E70A3BF6E700BF7704002043
:102A90007804002079040020034B1870034B197050
:102AA000034B1A70704700BF7704002078040020A1
:102AB0007904002010B1064B1B78037011B1054B4F
:102AC0001B780B7012B1044B1B781370704700BF5A
:102AD0007704002078040020790400202DE9F84FC5
:102AE000574B027A1A70037D044613B1554B0022EE
:102AF0001A70637A0BB1FFF76BFF534A1168D4E980
:102B0000000301B910601168814272D89B08052B3F
:102B100038BF05234B4D194481422C782EBF1160DC
:102B20001B181360002C4DD1484B1B78002B49D04B
:102B3000474F3B78002B45D002F0DAFD032690FB8F
:102B4000F6F606EB4606861B0136DFF80891A2462C
:102B5000F6B264244FF00A085FFA8AF39E424AD81C
:102B600002F0C6FD90FBF4F303FB14003B78C0B207
:102B7000B0EB530F26D202F0BBFD0A2690FBF6F312
:102B800003FB160602F0B4FD044602F0B1FD6342F9
:102B900003F00F0304F00F0458BF5C4242422D497A
:102BA00002F00F024FF0010300F00F0058BF504237
:102BB00003FA04F403FA00F031F8163004435C40E1
:102BC00021F81640234E244F002436F814302A787A
:102BD0001341DB0703D50A21385DFDF73BFE0134C5
:102BE0000A2CF2D12B780133DBB20F2B88BF0023E4
:102BF0002B70BDE8F88F02F07BFD90FBF4F303FB34
:102C000014003B78C0B2834216D902F071FD90FBEC
:102C1000F8FB0BFB180B02F06BFD434203F00F03B4
:102C200000F00F0058BF5842012303FA00F039F8B2
:102C30001B30584029F81B000AF1010A8CE700BF3D
:102C400094040020760400209004002077040020E3
:102C5000780400207A040020EA6900082DE9F84F82
:102C6000837A002B65D090F808803E4D3E4E3F4F52
:102C700000243F4BDFF808C1B8F1000F06BF1A4629
:102C80003B463A4613F804905CF82430125D15BFB9
:102C900028463046314629460133095D10F804A024
:102CA0004CF824304FEA840B002A4ED0B3FBF2F0EC
:102CB00002FB1033002945D0914240D2002B3AD17B
:102CC000501E4CF80B304B434143B3FBF2F3B1FBC6
:102CD000F2F2934204D0274B0A21185DFDF7BAFDAA
:102CE000254A5BF80230591C4BF80210B9F1000F6D
:102CF00034D0B1FBF9F309FB1313BAF1000F27D05D
:102D0000CA4528D2CBB909F1FF3142F80B3003FB99
:102D10000AF301FB0AFAB3FBF9F3BAFBF9F94B45E5
:102D200004D0164B0A21185DFDF794FD0134052CE3
:102D30009FD1BDE8F88F581EC3E7591EE5E74BF851
:102D40000C30C8E74BF80C30CAE74CF82420C7E732
:102D50004BF80230EAE74BF80230E2E74BF802901A
:102D6000E4E700BF2A6500082F6500083965000800
:102D7000346500083E650008AC0400204365000887
:102D800098040020F8B500240A4F0B4E2546385D04
:102D90000021FDF73FFD094B46F82450185D002146
:102DA000FDF738FD064B43F824500134052CEED1D5
:102DB000F8BD00BF3E650008980400204365000888
:102DC000AC040020FFF7DEBF2DE9F74F294B1D783B
:102DD0000A23B5FBF3F5052D2E464FF0000928BF59
:102DE0000526254B4946187801F040FEB9F1010F40
:102DF00007463ADD002D3AD0204B9B5D0093204BD7
:102E00004FF0000A9B5D019354464FF0640B4FF066
:102E1000010847FA0AF0C3071ED502F069FC009BBF
:102E200090FBFBFC0CFB1B00C0B298423CBF08FAB5
:102E30000AF004430AF1010A38BFA4B2BAF1100F34
:102E4000E7D1104B23F8194009F10109B9F10A0F34
:102E5000C7D103B0BDE8F08F02F04AFC90FBFBFC49
:102E60000CFB1B00C0B2019BDFE70446E9E72C46E0
:102E7000E7E700BFC1040020DC0400204E65000825
:102E800048650008C2040020F8B50B4B0B4E0C4DF2
:102E900000241C700B4B01221A700B4B1C700B4B47
:102EA00027461C6026F81470285D00210134FDF7C8
:102EB000B1FC0A2CF6D1F8BDC1040020C2040020E8
:102EC000EA690008D6040020C0040020D8040020CD
:102ED00008B5FFF7D9FF024B00221A6008BD00BFFA
:102EE000D8040020054A1378312B8CBF00230A3305
:102EF0001370034B01221A70704700BFC1040020F9
:102F0000D6040020024B1870024B01221A70704741
:102F1000C1040020D604002010B1044B1B780370BC
:102F200011B1034B1B780B70704700BFC104002028
:102F3000D60400202DE9F041224D037A2B70037D49
:102F4000044613B1204B00221A70637A0BB1FFF7CD
:102F50003BFF1E4A1168D4E9000301B910601168F3
:102F600081422CD89B08052B38BF05231944814288
:102F7000154C2EBF11601B18136023780BB9FFF797
:102F800023FF134FDFF84C8000263146287801F0EC
:102F90006DFD37F81630227818431041C30704D569
:102FA0000A2118F80600FDF755FC01360A2EECD16F
:102FB00023780133DBB20F2B88BF00232370BDE8D9
:102FC000F08100BFDC040020C0040020D8040020F1
:102FD000C2040020EA6900081F4A11682DE9F04187
:102FE000D0E9004301B914601168A14226D89B08BA
:102FF000052B38BF05231944A142184FDFF86C8018
:103000002EBF11601B19136000253E463B78144CFF
:10301000132202FB0353227838F813301341DB07E5
:1030200003D50A21E8B2FDF715FC0135132DEDD1CA
:1030300023780133DBB20F2B02D82370BDE8F08177
:10304000084B1978002222700029F7D006491A701F
:1030500009783170F2E700BFE0040020DE040020B0
:10306000DF040020DD040020E40400205465000893
:10307000094A002310B51370084A1370084A1370E8
:10308000084A01241370E0B200210134FDF7C2FBAD
:103090000C2CF8D110BD00BFDF040020DE0400209E
:1030A000DD040020E404002008B5FFF7E1FF024B37
:1030B00000221A6008BD00BFE004002009289CBF60
:1030C000014B1870704700BFDE040020014B1878D8
:1030D000704700BFDE04002042F6E063984228BF3C
:1030E0001846064B1B78212838BF212023B919B177
:1030F0004008212838BF2120704700BF3705002035
:1031000042F6E063074A984228BF18461278212801
:1031100038BF2120012A04D119B14000984228BFAC
:1031200018467047370500204C2270B500210F4823
:1031300002F0B2FAFEF71CFC0D4A002342F823000D
:103140000133132BFAD10B4E0B4D0024305D0021BF
:10315000FDF760FB285D00210134FDF75BFB062CC9
:10316000F4D1064B01221A7070BD00BFE8040020A4
:1031700038050020D0660008D666000884050020C7
:103180002DE9F74FD0E90072A2F12103B3F53B5FBF
:10319000524B38BF1A601D68514B1C788146002C79
:1031A00050D1504B28461978FFF796FF0546022C60
:1031B00004BF4D4A92F800804C4A1478A5F12103CF
:1031C00018BF4FF00008002C44D099F80A10B1B392
:1031D000B3F53B5F33D20024147021464C2244489F
:1031E000DFF81CB102F058FA424B434A14F80B6066
:1031F00016B3B5FBF6F60A2EDFF8089114F803A013
:10320000A15C38BF0A26F01949F82A0049F82100C4
:10321000B8F1000F10D159F82A10B9420CD80A2180
:103220005046CDE90032FDF715FB59F82A10DDE9CB
:1032300000320E4449F82A600134062CD6D103B07E
:10324000BDE8F08F012CB2D12C4B28461978FFF73E
:1032500057FFABE7B3F53B5FF1D2DFF8A8A0284BEF
:10326000E25C002A35D0234BE65C234B5AF826104B
:1032700014F803B0B94217D8B8F1000F05D10A21EC
:1032800030460092FDF7E6FA009AB5FBF2F15AF8E3
:1032900026000A2938BF0A210844B84236BFC91996
:1032A0004AF826004AF8261099F80A1089B1104EFB
:1032B00056F82B100131914246F82B1009D3B8F182
:1032C000000F03D10A215846FDF7C4FA002246F840
:1032D0002B200134062CC2D1B1E700BF1000002022
:1032E0003705002035050020360500208405002024
:1032F000E8040020D0660008D666000834050020E7
:10330000DC660008380500202DE9F84F124EDFF882
:103310004CA00546884691460024B34614F80A702E
:1033200056F82700A84212D9401B42460023A0FBB2
:10333000090102F0D5FA00238B424BF6803208BF18
:10334000824238BF42F6E06028444BF8270001343F
:10335000062CE3D1BDE8F88F38050020D0660008C0
:10336000014B1870704700BF3505002010B1024BAB
:103370001B780370704700BF35050020014B1870A3
:10338000704700BF3405002010B1024B1B7803705A
:10339000704700BF34050020014B1870704700BF14
:1033A0003605002010B1024B1B780370704700BF38
:1033B00036050020024B00221A70FFF7B5BE00BF91
:1033C00037050020024B01221A70FFF7ADBE00BF87
:1033D00037050020024B02221A70FFF7A5BE00BF7E
:1033E00037050020FFF7E6BFFFF7ECBFFFF7F2BF9E
:1033F000024B00221A70FFF7C3BE00BF3705002042
:10340000024B01221A70FFF7BBBE00BF3705002038
:10341000024B02221A70FFF7B3BE00BF370500202F
:10342000F8B530BB134B144E1870FEF7A1FA134BCE
:1034300034781A6840F25933A2F12101B1F53B5FAB
:1034400028BF1A46074621461046FFF745FE84F07E
:103450000101054610463170FFF73EFE024645B1B8
:1034600038B1854205D029463846BDE8F840FFF717
:103470004BBFF8BD370500203505002010000020A7
:103480002DE9F04138BB154B154F01221A70FEF79C
:103490006FFA144B3D781C6840F25933A4F12102B5
:1034A000B2F53B5F28BF1C46294680462046FFF701
:1034B00027FE85F00101064620463970FFF720FE01
:1034C000024646B138B1864205D031464046BDE895
:1034D000F041FFF719BFBDE8F08100BF37050020BC
:1034E000340500201000002038B9044B02221A7065
:1034F000034A137883F001031370704737050020E7
:1035000036050020014B1870704700BF850500206C
:1035100010B1024B1B780370704700BF8505002077
:1035200010B50024E0B200210134FDF773F90C2C32
:10353000F8D110BDFFF7F4BF837A2DE9F041F3B164
:10354000104E114FDFF8488000243B78A55D13B181
:10355000C5F16405EDB202F0CBF8642390FBF3F201
:1035600002FB1300C0B285428ABF084B18F8040062
:10357000185D0A210134FDF76DF9062CE5D1BDE88F
:10358000F08100BFEE66000885050020E2660008B5
:10359000E866000820B9034A137883F0010313702A
:1035A000704700BF8505002038B5084B1D5C084BEF
:1035B00004462946185CFDF72DF9064B85F00101FC
:1035C000185DBDE83840FDF725B900BF860500202D
:1035D000F4660008FA660008014B1870704700BFD7
:1035E000AC05002010B1024B1B780370704700BF80
:1035F000AC0500202DE9F041FEF7BAF90A4B0B4F5C
:103600000B4D002406461C609C804FF0010804F816
:10361000078045F82460E0B20134FFF7C5FF062CAF
:10362000F5D1BDE8F08100BF8C05002086050020A3
:1036300094050020FFF7DEBF2DE9F74FD0F804B066
:10364000ABF12103B3F53B5F12D2294B1B78D3B901
:10365000827A6AB1274C284E1F461A5D01325D1CE2
:10366000D2B2AA42D8B206D21A55062D2B46F4D1B0
:1036700003B0BDE8F08F9A5D1F5582F001029A55A4
:10368000FFF792FFF1E71D4CD0F800A01A4E00257D
:10369000224605F10109BBFBF9F8B8F10A0FE9B2BE
:1036A00038BF4FF00A080027236843445345F8B257
:1036B00014D80137092F02D142F825A010E0337841
:1036C000019283F00103084633700091FFF76CFF0D
:1036D000236843442360DDE90012E5E70828EBD0C6
:1036E0004D46062D04F1040406F10106D1D1BFE7D1
:1036F000AC0500208C0500208605002094050020E4
:1037000010B5044680B9094A137883F00103137099
:10371000FEF72EF9064B1C609C80064BC3E90000A7
:10372000C3E90200C3E9040010BD00BFAC050020DE
:103730008C050020940500202DE9F047134D2E78CC
:103740000EB3FEF715F90024114FDFF84890DFF8AB
:1037500048A080462346E25D052A0FD8062303FBD6
:10376000042359F82330434507D80A211AF80400E6
:10377000FDF770F8E35D0133E355334601340C2C5B
:10378000E9D103B92B70BDE8F08700BFDC0600204B
:10379000D0060020B005002000670008094A002379
:1037A00010B51370084A0621995401330C2BFBD134
:1037B0000024E0B200210134FDF72CF80C2CF8D1E4
:1037C00010BD00BFDC060020D0060020FFF7E6BFDA
:1037D0002DE9F04F064689B000283FD1FEF7C8F822
:1037E000494FDFF840A18146052EC7F80090F1B29D
:1037F0000DF10C0859D84B1EDFF82CE100205FFAC0
:1038000083FB01295EF820302BD8404A52F8202053
:10381000002918BF1A4648F8202001300528F0D1A9
:103820004A46002358F8231001330A44052B47F871
:103830002320F7D1364B0122F25416440C2E07F107
:103840001807D1D1334D0024285D0A210134FDF73A
:1038500001F80C2CF8D1304B01221A7009B0BDE8E8
:10386000F08F5AF820201C46D21A4FF0000562EB68
:103870000203CDE90045A2FB0B450BFB0355002CD1
:1038800075F1000302DA033445F10005A20842EAAB
:103890008572AB10DDE90045A4185D41002C22467D
:1038A00075F10004B8BF0022B5E78C1FE4B24FF0F9
:1038B000000BE4B2194B1A4A53F82B3052F82B2064
:1038C0001846D21A4FF0000162EB0203CDE9000165
:1038D000A2FB040104FB03110522002301F0B0FF49
:1038E000DDE9002312184B411946002A71F100034B
:1038F0001046B8BF002048F82B000BF1010BBBF1BC
:10390000050FD7D18CE700BFB00500200C67000879
:10391000D006002000670008DC06002020670008B1
:103920005C670008486700083467000838B5104D28
:1039300095F90030002B1ADB827AC2B1042B16DC19
:10394000DCB2631CDBB20B4A0A21D05CFCF782FFBD
:10395000C4F10403DBB2084A0A21D05CFCF77AFF09
:103960002B7801335BB2042BC8BFFF232B7038BD0B
:10397000140000207067000876670008064BFF22DD
:1039800010B51A700024E0B200210134FCF742FFA8
:103990000C2CF8D110BD00BF14000020FFF7EEBFC3
:1039A00010B5044640B90A21FCF754FF0A210B2048
:1039B000FCF750FF014B1C7010BD00BF140000202D
:1039C000034B1870034B0B2988BF002119707047F7
:1039D000DD060020DE06002010B1044B1B780370CA
:1039E00011B1034B1B780B70704700BFDD06002040
:1039F000DE060020064B10B500241C70054B1C7021
:103A0000E0B200210134FCF705FF0C2CF8D110BD09
:103A1000DE060020DD060020FFF7ECBF837A10B53C
:103A200023B3134C21780C22B1FBF2F302FB1313E6
:103A3000027ADBB2012A08BFC3F10B03052B8BBF4F
:103A40000C4A0D4A9B18D05C8ABF13F8060C0A2159
:103A50000A21FCF7FFFE094B1B783BB923780C21A8
:103A60000133B3FBF1F201FB1233237010BD00BF31
:103A7000DE060020826700087C670008DD06002063
:103A8000024A137883F0010313707047DD060020AB
:103A9000837ACBB1C268BAB10C21013AB2FBF1F31F
:103AA00001FB1323027A012A08BFC3F10B03052B84
:103AB0008BBF064A064A9B180A2192BFD05C13F8B6
:103AC000060C0A21FCF7C6BE704700BF8E670008CF
:103AD0008867000810B50024E0B200210134FCF72B
:103AE00099FE0C2CF8D110BDFFF7F4BFFCF77CBC9D
:103AF000084B094A052888BF00201870074B03EBC4
:103B0000C00003790BB9137070478B4298BF002136
:103B100011707047DF060020E0060020946700085F
:103B200010B1044B1B78037011B1034B1B780B7061
:103B3000704700BFDF060020E0060020064B10B5EE
:103B400000241C70054B1C70E0B200210134FCF70E
:103B500061FE0C2CF8D110BDDF060020E00600202D
:103B6000FFF7ECBFF8B5837A1BB3154B1978154BEB
:103B700003EBC10216791A46DEB1134C007A2378A2
:103B800052F83170012802BFDB439B19DBB203EB13
:103B900083031F4400253A78EBB29A4202D90135DB
:103BA000052D07D123780133B3FBF6F206FB12365D
:103BB0002670F8BD0A21785DFCF74CFEEBE700BFEC
:103BC000DF06002094670008E006002006490B7815
:103BD00006200133B3FBF0F200FB12330B70034BF2
:103BE00000221A70704700BFDF060020E0060020A8
:103BF000034A002313609380024A13609380704746
:103C0000E1060020E706002070B50B4E0B4D0124A5
:103C1000305D0021FCF7FEFD285D00210134FCF73A
:103C2000F9FD062CF4D1064A002313609380054A5F
:103C30001360938070BD00BFB9680008BF680008BA
:103C4000E1060020E70600202DE9F04F8246807A49
:103C500085B0002870D09AED017ADAF800103D4E58
:103C60003D4D01220DF10808F6EC016AF5EE406ABF
:103C7000F1EE10FA63D0B8EE476AC6EE267AFCEE93
:103C8000E77A17EE903A002B5BD0B1FBF3F403FB1D
:103C90001414B4EB530F34BF01230023F5EC016A75
:103CA0000DF80230F5EE406AF1EE10FA4BD0B8EEA6
:103CB000476AC6EE267AFCEEE77A17EE903A002BBA
:103CC00043D0B1FBF3F403FB1414B4EB530F34BF34
:103CD0000123002308F802300132062AC4D11F4F05
:103CE000DFF884901E4E01241DF8045018F80430AB
:103CF00085EA030B5DBBEB1A5D425D419AF8083023
:103D000013B15B46AB461D46BBF1000F06D03B5DD1
:103D100023B90A2119F80400FCF79CFD35B1335D85
:103D200023B9104B0A21185DFCF794FD07F804B085
:103D300035550134062CD7D105B0BDE8F08F0023EE
:103D4000ACE70346AAE70023C4E70346C2E7002521
:103D5000D4E700BFCC680008E4680008E106002052
:103D6000E7060020BF680008B96800080B380B465A
:103D70001146122844D8DFE800F00A0D1013161976
:103D80001C1F2225282B2E3134373A3D400018467F
:103D9000FEF75EBE1846FFF7A5B8184600F012BF42
:103DA000184601F043B9184600F0F6B8184600F07E
:103DB000C7BA1846FEF73ABD184601F057B818467C
:103DC000FEF75EB91846FFF791BE1846FFF758BEDA
:103DD0001846FFF7FBBE1846FFF7E2BD1846FFF78F
:103DE000F7BC1846FFF78CBC1846FFF7D3BB184644
:103DF000FFF716BB1846FFF743BB1846FFF774BB27
:103E0000704700000B4B2DE9F04193F800800A4FFA
:103E10000A4E0B4D00242146404600F027FE27F8AD
:103E2000140026F8140025F8140001340A2CF2D1ED
:103E3000BDE8F081340700200C0700202007002097
:103E4000F4060020364B2DE9F74F1E68354ADFF89F
:103E5000E0E0DFF8E08001367243019200219A46EB
:103E60004FF00309304B3EF8110033F8117058F849
:103E7000213049F637625343019A5340072291FBA0
:103E8000F2F2C2EBC2028A1A00FA02F2534083EA4B
:103E9000433383EA534383EA4313B3FBF9F505EB5A
:103EA00045054FEA410C5D1B4FF0000B01240BEB65
:103EB0000B120A44134483EA433383EA534383EAED
:103EC000431303F00F0204FA02F20BF1010B50400E
:103ED0005D4580B2EBDA83F01E4383F45D1383F417
:103EE000665383F0390383EA433383EA534303F091
:103EF0000F039C401F41A4B2FB070C4B4CBF044373
:103F000020EA04042CF803400131094B0A2923F864
:103F10000C40A7D1CAF8006003B0BDE8F08F00BF25
:103F2000F0060020B179379E0C0700202007002002
:103F3000F4060020F868000838B50C4B0C4D00243E
:103F40001C700C4B1C700C4B1C600C4B1C600C4B05
:103F50001C70FFF757FFFFF775FF285D0021013444
:103F6000FCF758FC0A2CF8D138BD00BFEE06002043
:103F7000EA690008ED06002008070020F00600208E
:103F80003407002008B5FFF7D7FF024B00221A6064
:103F900008BD00BF08070020044B1A781AB10022A0
:103FA0001A70FFF74FBF01221A707047EE0600200B
:103FB0000B4B10B518700B4B196082B10A481346B1
:103FC00002F1140153F8044B40F8044B8B42F9D131
:103FD000064B52F8040B43F8040B8A42F9D110BD8A
:103FE000EE060020F0060020F40600202007002046
:103FF00010B1094B1B78037011B1084B1B680B60A3
:1040000042B1074B03F1140153F8040B42F8040BBF
:104010008B42F9D1704700BFEE060020F006002069
:10402000F4060020F8B5204B027A1A70037D04468E
:1040300013B11E4B00221A70637A0BB1FFF7E2FE38
:104040001B4A1168D4E9000301B91060116881426C
:1040500029D89B08052B38BF0523194481423CBF52
:104060001B181360134B28BF11601B780F4C1BB932
:1040700023780BB9FFF7E6FE0F4E104F002536F8F8
:10408000153022781341DB0703D50A21785DFCF750
:10409000E1FB01350A2DF2D123780133DBB20F2B7E
:1040A00088BF00232370F8BD34070020ED060020F0
:1040B00008070020EE060020F4060020EA69000848
:1040C0002DE9F74F037A019343684F4FDFF858917A
:1040D0000646A3F121080024B8F53B5F76D24B4B8E
:1040E00033F814206100002A67D0494B33F814508C
:1040F00073685D43B5FBF2F5464BCA5A002A5FD0A0
:10410000454BC85A73685843B0FBF2F00A2D019B27
:1041100038BF0A250A2838BF0A2013B92B4605469E
:104120001846411C54D0336859F82420395D0A28B8
:104130004FEA840BA3EB020314BF4FF00A0C4FF0BD
:10414000010C31B984453ED2B0EB0C0C08BF4FF0E6
:10415000010C9C4509D8314B81F00101185D39559E
:10416000FCF758FB336849F80B302D4B6A1CE15CB7
:104170003CD0DFF8B8B032685BF824000A2D4FEA73
:10418000840AA2EB00023AD061BB4FF00A0EB5EBF5
:104190000E0508BF0125954209D8224A81F0010188
:1041A000105D1955FCF736FB32684BF80A200134D4
:1041B000052C91D103B0BDE8F08F4FF0FF359BE7A0
:1041C0004FF0FF30A2E74FF0010CC2E74FF0FF3590
:1041D0003B5D002BC9D0114B00213955185DFCF710
:1041E00019FBC2E70A25D6E70125D4E70029DED06E
:1041F0000021E1540B4B185DFCF70CFBD7E70029BD
:10420000F2D14FF0010EC2E7600700202A690008D2
:104210003E69000834690008486900082069000800
:104220006507002025690008380700204C0700209A
:10423000F8B500240C4F0D4E2546385D0021FCF7E3
:10424000E9FA0B4BA55543F824500A4B0021185DA1
:10425000FCF7E0FA084BE554084B43F824500134CE
:10426000052CEAD1F8BD00BF2069000860070020D6
:104270003807002025690008650700204C0700204A
:10428000FFF7D6BF124A002370B505461C461646F6
:10429000995CA94208BF013403F1010308BFE4B2ED
:1042A0000A2BF5D184B101F023FA90FBF4F303FB60
:1042B0001404E4B20020335CAB4202D134B1013CBF
:1042C000E4B201300A28F6D14FF0FF3070BD00BFD4
:1042D0006D07002038B50E4B0E480F4D00241C60B2
:1042E0005C601C811422214601F0D6F90B4B1C7036
:1042F0000B4B01221A700B4B1C700B4B1C60285D82
:1043000000210134FCF786FA0A2CF8D138BD00BF31
:104310006D0700207E070020EA6900086B07002077
:104320006C0700206A0700207807002008B5FFF717
:10433000D1FF024B00221A6008BD00BF78070020A1
:10434000F8B5234D234E2C7884B10020FFF79AFF57
:10435000002805DB204B01221A54337813443370B4
:104360003378092B01D900232B70F8BD0120FFF70A
:1043700089FF071E26DB184BDC5501F0B9F904460E
:1043800001F0B6F9634203F00F0304F00F0458BFC5
:104390005C42414201F00F01104A00F00F0058BF8B
:1043A00048420123E4B2C0B203FA04F403FA00F075
:1043B00032F8173004435C40337822F8174023B1B9
:1043C000013B33703378002BCFD10123CCE700BF02
:1043D0006C0700206B0700206D0700207E0700207F
:1043E000F0B40026144F344640FA06F505F0010CEF
:1043F000ED0748BF651C06F807C006F1010648BF77
:10440000ECB20A2EF0D18C4228BF0C460B490C703E
:104410000B490A7053B10B4A03F1140153F8040B12
:1044200042F8040B8B42F9D1F0BC704714221946B4
:104430000448F0BC01F030B96D0700206B07002084
:104440006C0700207E070020F0B588B10024124ED2
:104450002546012714F806C0BCF1000F04D007FA66
:1044600004FC45EA0C05ADB201340A2CF2D10580FA
:1044700011B10A480078087012B109490978117021
:1044800043B1084A02F1140152F8040B43F8040B3B
:104490008A42F9D1F0BD00BF6D0700206B070020F4
:1044A0006C0700207E0700202DE9F041204D037AA3
:1044B0002B70037D13B11F4B00221A701E4A116826
:1044C000D0E9004301B914601168A1422ED89B08BD
:1044D000052B38BF05231944A14238BF1B19174EBD
:1044E000174FDFF850802CBF116013600024A35DCC
:1044F0008BB92146287800F0B9FA37F814305840C3
:1045000098F8003080B21841C30704D50D4B0A213A
:10451000185DFCF79FF901340A2CE8D1054A13789D
:104520000133DBB20F2B88BF00231370BDE8F0818D
:104530007C0700206A070020780700206D07002014
:104540007E070020EA6900082DE9F041551E174654
:10455000EA1C1E4680460C464B6808D91BB1002158
:104560006160FCF757F900232360BDE8F0812BB1AF
:104570009E4218D300216160FCF74CF923681E4469
:10458000B7422660F1D863684BB901214046FCF779
:1045900041F90A2F0AD8002D08BF0125656022685D
:1045A000D21B2260E1E79B1B4B60E7E70A25F5E79A
:1045B00070B5282200210B480B4E0C4D01F06CF811
:1045C000282200210A4801F067F80024305D00210C
:1045D000FCF720F9285D00210134FCF71BF9052CBC
:1045E000F4D170BD94070020606900086569000877
:1045F000BC070020024B00221A70FFF7D9BF00BF92
:10460000920700202DE9F84F437A05464BB14F49F8
:104610000B780322013393FBF2F202EB42029B1A66
:104620000B702B7D0BB1FFF7C3FF6C68002C7DD0A6
:1046300007EE904ADFED466A444AF8EE677A117851
:10464000444A86EEA77A02EB810242F6E0639C427E
:10465000A04628BF9846B8F1210F38BF4FF0210877
:10466000D2ED007A77EE277AF5EEC07AF1EE10FA05
:104670005ED986EEA77AFCEEC77A17EE904A9C4286
:1046800028BF1C46212C38BF2124DFF8DCA0D5F838
:10469000109000250AEB85033AF825B05E8808F1F2
:1046A000FF33033346D8002E44D032460023ABFB01
:1046B000080101F015F9002342F6E0628B4208BFC1
:1046C00082423AD3002908BF21282CBF0746212760
:1046D000631E033334D89EB332460023ABFB040180
:1046E00001F0FEF8002342F6E0628B4208BF8242EE
:1046F00029D3002908BF21282CBF064621261649A8
:1047000016484FEAC50B405D4B463A465944FFF701
:104710001BFF134913484B46405D3246594401354F
:10472000FFF712FF052DB5D1BDE8F88FA046ACE725
:104730001C46AAE74FF0FF37CAE742F6E067C7E733
:104740004FF0FF36DBE742F6E066D8E7920700203D
:1047500000606A47546900089407002060690008F7
:10476000BC070020656900086A69000810B54C2480
:1047700022460021044800F08FFF22460021034812
:10478000BDE8104000F088BFE4070020300800209A
:104790002DE9F04FDFF8B081D0E9004B002685B05D
:1047A00007464546B14658F82630F0B24FEA860A29
:1047B00033B1A34204D80021FCF72CF84AF8089042
:1047C00001360C2EEFD1BB7A83B1286828B90121BC
:1047D000FCF720F804F10A032B60AB6933B901211F
:1047E0000620FCF717F804F10A03AB613A7A524B42
:1047F00052485349DFF854A1002A0CBF1A4602461A
:104800000292504A0BBF0E461646904688460196C5
:1048100008BF034608F1FF380127002218F8011FDE
:104820005FFA87FC39B3DE194FEA870916F8016C85
:104830000BFB06F6B6FBF1F65AF82710002E08BF60
:10484000012609B1A14216D855F80900002864D103
:10485000012160460393FBF7DDFF04F10A0245F8EE
:1048600009205AF80920039B002A08BF2246164453
:104870004AF8096001220137052FCFD1019BDFF8EB
:10488000CC9003F1FF3A072700231AF8011F5FFAC3
:1048900087FC39B3029E3E444FEA870816F8076C3E
:1048A0000BFB06F6B6FBF1F659F82710002E08BFF1
:1048B000012609B1A14215D855F80800A0BB012175
:1048C00060460192FBF7A6FF04F10A0345F80830A1
:1048D00059F80830019A002B08BF23461E4449F8B6
:1048E0000860012301370B2FCFD152B16A6942B959
:1048F000012105200193FBF78DFF04F10A02019BC2
:104900006A613BB1EB6A2BB901210B200A34FBF73A
:1049100081FFEC6205B0BDE8F08F19B10E444AF892
:104920000960A8E72644FAE719B10E4449F808607F
:10493000D8E72644FAE700BF8A69000886690008BC
:10494000826900087E69000830080020E407002022
:1049500010B54C220021084800F09EFE4C22002198
:10496000064800F099FE0024E0B200210134FBF774
:1049700051FF0C2CF8D110BDE407002030080020B6
:10498000F8B5837A2DED028B002B3BD0027A1F4CB9
:104990001F4B9FED208A204F002A16BF25461D463B
:1049A0001C460026F0EE488A00F0A2FE07EE900AB0
:1049B000F8EEE77AB4EC017A67EE887AB4EEE77A3B
:1049C000F1EE10FA03DD0A21B85DFBF743FF013673
:1049D000052EE9D1114E002400F08AFE07EE900A60
:1049E000F8EEE77AB5EC017A67EEA87AB4EEE77AEA
:1049F000F1EE10FA03DD0A21305DFBF72BFF0134E5
:104A0000052CE9D1BDEC028BF8BD00BF9069000810
:104A1000A469000800000030B8690008BD690008FA
:104A200070B5074E074D0024305D0021FBF7F2FE04
:104A3000285D00210134FBF7EDFE052CF4D170BD9B
:104A4000B8690008BD69000808B5FCF791FF80F05F
:104A50005E4080F42D0080F43E4080F0EF0000F0D6
:104A600023FEBDE80840FFF7DBBF0000092909D895
:104A7000431E584258410A2303FB0011024B33F8EE
:104A80001100704700207047C26900082DE9F84303
:104A9000837A002B46D0037A234E244AC768DFF876
:104AA0009890002B224B18BF1E46224B4FF000045B
:104AB0000CBF90469846254656F8242052B1B7FBC5
:104AC000F2F302FB13732BB90A2119F80400FBF768
:104AD000C1FE01250134042C05F00105ECD10026AE
:104AE000DFF85890344658F8262052B1B7FBF2F35D
:104AF00002FB13732BB90A2119F80600FBF7AAFE73
:104B000001240136042E04F00104ECD11DB10A2168
:104B10000520FBF79FFE2CB10A210B20BDE8F843CE
:104B2000FBF798BEBDE8F883046A0008246A000811
:104B3000146A0008F4690008346A0008396A000839
:104B400070B5074E074D0024305D0021FBF762FE73
:104B5000285D00210134FBF75DFE052CF4D170BD0A
:104B6000346A0008396A0008FFF7EABF0A4A38B514
:104B700000241470094A0A4D14700A4A0121117068
:104B8000094A1470094A1460285D00210134FBF7BA
:104B900041FE0A2CF8D138BD850800208608002087
:104BA000EA690008870800207C08002080080020AF
:104BB00008B5FFF7DBFF024B00221A6008BD00BFFB
:104BC000800800200E480F4A03780F492BB90123B3
:104BD00003700A2010700B7070470878137838B192
:104BE000632B85BF00230B700A335A231370704761
:104BF0001BB901230B700A23F8E70A3BF6E700BF55
:104C0000850800208608002087080020034B1870C4
:104C1000034B1970034B1A70704700BF85080020C2
:104C2000860800208708002010B1064B1B7803700F
:104C300011B1054B1B780B7012B1044B1B7813702C
:104C4000704700BF850800208608002087080020E4
:104C50002DE9F843274C037A2370037D13B1264BCB
:104C600000221A70254A1168D0E9005301B9156075
:104C70001168A94228D89B08052B38BF0523194481
:104C8000A9421D4FDFF87C802EBF11605B191360B5
:104C900000263D4631462078FFF7E8FE3B78184174
:104CA000C30707D598F8003083B9154B0A21985DE2
:104CB000FBF7D0FD01360A2EECD12B780133DBB2A5
:104CC0000F2B88BF00232B70BDE8F883DFF83890E6
:104CD00099F80030002BE8D000F00AFD642390FB27
:104CE000F3F202FB130099F80030C0B28342DCD922
:104CF000E0E700BF840800207C0800208008002036
:104D0000EA6900088508002086080020F0B5002226
:104D100091B0134641FA03F4E40703F1010348BFDD
:104D20000132102BF6D10168214C43F2390304FB08
:104D300001315125B1FBF5F305FB1313283B534318
:104D4000642593FBF5F31344102BA8BF10230160D7
:104D500023EAE373002225464DF822200132102A6F
:104D6000FAD10F2243F2390C561C05FB01C110AFDA
:104D7000B1FBF6F406FB141407EB84045DF8226023
:104D800054F8407C4DF82270013A44F8406CEBD165
:104D90000160012410469A4201D111B0F0BD5DF8C6
:104DA000221004FA01F1084380B20132F3E700BF98
:104DB0006D4EC641F7B50D4F0D4E0E4D01900024BE
:104DC00021463878FFF752FE014601A8FFF79EFF03
:104DD00026F81400014601A8FFF798FF25F81400F3
:104DE00001340A2CECD103B0F0BD00BFA0080020B4
:104DF00088080020AA08002038B50C4B0C480D4D3F
:104E000000241C700C4B1C600C4B1C700C4B18606D
:104E10000C4B1C600C4B1C70FFF7CCFF285D002175
:104E20000134FBF7F7FC0A2CF8D138BDA8080020A4
:104E300001EEFFC0EA6900089C080020BE080020BF
:104E4000C0080020A4080020A008002008B5FFF733
:104E5000D3FF024B00221A6008BD00BF9C0800204F
:104E6000014B00221A707047A80800200748036809
:104E70005A1C074B026053435940064B064A4B40AD
:104E80001360064B01221A70704700BFA40800206F
:104E9000B179379E1DE9C3A5C0080020BE080020D7
:104EA000024B1860024B1970704700BFC008002009
:104EB000BE08002010B1044B1B68036011B1034B06
:104EC0001B780B70704700BFC0080020BE08002090
:104ED0002DE9F843294B027A1A70037D04460BB181
:104EE000FFF7BEFF637A1BB1254B1868FFF762FF1F
:104EF000244A1168D4E9000301B9106011688142A5
:104F00002ED89B08052B38BF05231F4C1F4F267832
:104F1000DFF88080DFF88090194481423CBF1B1885
:104F2000136006F00F034FF0010628BF11609E408A
:104F3000002523785F2B94BF38F8153037F81530EB
:104F4000334204D00A2119F80500FBF783FC013530
:104F50000A2DEED123780133DBB21A0602D4237076
:104F6000BDE8F88300252570094C2378002BF7D085
:104F7000034B1868FFF71EFF2570F1E7A00800201B
:104F8000C00800209C080020A8080020AA080020D3
:104F9000BE08002088080020EA690008114A38B5D8
:104FA00000231370104A02211170104A0121117060
:104FB0000F491A4621F8132001330A2BFAD10D4B61
:104FC0000D4D4FF0000119700C4B1A700C4B002462
:104FD0001A60285D00210134FBF71CFC0A2CF8D173
:104FE00038BD00BFCE080020CF080020D008002028
:104FF000D2080020CD080020EA690008C40800207B
:10500000C808002008B5FFF7C9FF024B00221A604C
:1050100008BD00BFC8080020024A00231370024ADE
:1050200013707047C4080020CD0800200A4A0B4BBB
:10503000117819B901211170022203E01A78022AAD
:1050400005D104221A70064B01221A707047042AF7
:10505000F2D10822F6E700BFCE080020CF080020DA
:10506000D008002010B504460C4804700C480170AC
:105070000C490A7063B10C4A03F1140153F8040B94
:1050800042F8040B8B42F9D10CB9084B1C7010BDCF
:1050900014221946044800F0FFFAF5E7CE08002074
:1050A000CF080020D0080020D2080020CD08002022
:1050B00010B510B10A4C2478047011B10948007879
:1050C000087012B108490978117043B1074A02F11A
:1050D000140152F8040B43F8040B8A42F9D110BDB5
:1050E000CE080020CF080020D0080020D2080020E1
:1050F0002DE9F0473E4E037A3370037D0BB1FFF785
:105100008BFF3C4A1168D0E9004301B91460116873
:10511000A14263D89B08052B38BF05231944A1423F
:10512000354F2EBF11601B1913603B786BB3334BA7
:105130001B78DFF8D490DFF8D4A04FF0010808FA0C
:1051400003F800244D4621463078FFF78FFC39F8EC
:105150001430584080B210EA080F04D00A211AF81F
:105160000400FBF777FB01340A2CECD13B78002BD1
:1051700036D0234B1978012932D9204A13780133CC
:10518000DBB2994203D9137028E01E4BD0E700230D
:10519000137000F0ADFA90FBF4F606FB140600F075
:1051A000A7FA044600F0A4FA634203F00F0304F0E8
:1051B0000F0458BF5C42424202F00F024FF001035D
:1051C00000F00F0058BF504203FA04F403FA00F055
:1051D00035F8163004435C4025F81640BDE8F087EA
:1051E000084A13780133DBB20F2B88BF0023CAE7CC
:1051F000CC080020C8080020CE080020CD080020E0
:10520000CF080020C4080020D2080020EA69000866
:1052100010B54C2200210B4800F03EFA4C22002130
:10522000094800F039FA0024E0B200210134FBF70C
:10523000F1FA0C2CF8D1054A03231370044A1370B9
:1052400010BD00BF34090020E80800201500002030
:10525000160000202DE9F04F437A076885B0064616
:105260005BB15C4A1378013303F0070313705A4AA9
:105270001378073303F007031370DFF86891DFF842
:105280005CA10024C84659F82430E0B2A50073B1EF
:10529000BB420CD855F80A3033B90121FBF7BAFAF2
:1052A00007F10A0345F80A30002348F805300134B5
:1052B0000C2CE8D1494D0024A946A24655F82430CB
:1052C000E0B24FEA840B33B1BB4204D80021FBF7B4
:1052D000A1FA4BF805A001340C2CEFD1B37A002BC6
:1052E0005FD03C4A3E4B1278F56853F82220019279
:1052F000394A1278013D53F82230029300242246A5
:1053000005F0010B59F82410E0B2A30071B958F868
:10531000241059B902EB070A02BB01210393FBF7E2
:1053200079FA039B0AF10A0149F80310052C3ED1D2
:105330000624002105F0010A64231DE0BCF1320FB0
:1053400085BFACF1320C03FB0CFC0022642384BF4C
:105350009CFBF3F222EAE2720134D3E748F803A09F
:10536000E4E7322A85BF323A5143002191FBF3F141
:1053700088BF21EAE171013459F82420E0B24FEAF4
:10538000840B62B958F824204AB9CD1961B90121BA
:105390000A350193FBF73EFA49F80B50019B0B2CA1
:1053A0000ED105B0BDE8F08F48F80B50F7E7019A31
:1053B000736812F804C0BBF1000FBFD15A46CBE7A7
:1053C000029A7168224412F8062CBAF1000FC8D173
:1053D0005146D0E71500002016000020E808002004
:1053E000686A00083409002010B54C2200210B48DF
:1053F00000F052F94C220021094800F04DF9002438
:10540000E0B200210134FBF705FA0C2CF8D1054A73
:1054100003231370044A137010BD00BF3409002029
:10542000E808002015000020160000200728064B81
:1054300086BF03221A7018700729044B8ABF032203
:1054400019701A70704700BF150000201600002068
:1054500010B1044B1B78037011B1034B1B780B7018
:10546000704700BF15000020160000201D2804D83A
:10547000024B53F8203003B118477047006B000807
:105480001D2804D8024B53F8203003B11847704749
:10549000886A000810B5014604461120FBF7BAF9E6
:1054A000014B1C7010BD00BF8A090020094B10B5CC
:1054B0001C7874B9084B1C70084B4FF4FA721A60D0
:1054C000FCF756FA064B18602046BDE81040FFF77F
:1054D000E1BF10BD88090020800900201C000020C9
:1054E00084090020024B00221A70FFF7DFBF00BFC3
:1054F000880900201D280BD8064B1A7882421A46CC
:1055000005D00549097811B91870FFF7CFBF1070A1
:10551000704700BF8109002088090020404B1B789C
:105520002DE9F04107462BB13E4B1878BDE8F0411C
:10553000FFF7B0BF3C4D2B781D2B43D80133DBB2B6
:10554000092B06D90A21B3FBF1F201FB12331344F4
:10555000DBB2364C364E2278DFF8E0809A420DD32B
:105560003368FB1AB3F5C87F2ED3324B3760002067
:105570004FF4FA7220701A60FFF78CFF336898F8C6
:105580000020FB1A42BB2B4A1268002A08BF0122E6
:105590009A4215D82B7822781D2B1BD80133DBB209
:1055A000092B17D90A21B3FBF1F39A422CBF7823B8
:1055B0004FF49663204A01201360FFF76BFF3760BA
:1055C000BDE8F0810123C4E798F80030002BF7D044
:1055D0000020ABE77823EDE7174A12689A42EFD82C
:1055E000002094F80080FFF755FF22782B78376071
:1055F00001321D2B227010D80133DBB2092B0CD9DC
:105600000A22B3FBF2F340F28A22984534BF1346D4
:105610004FF4FA73074A1360D2E74FF4FA73F9E7CD
:1056200088090020890900208109002080090020C4
:10563000840900201C000020180000208A09002096
:10564000064B1A781870064B197010B10846FFF710
:1056500021BF0AB1FFF72ABF704700BF88090020A9
:105660008909002030B50024A24201D1002007E0C2
:10567000035D01340D1915F8015CAB42F4D0581BE1
:1056800030BD10B5431E0A44914200D110BD11F83F
:10569000014B03F8014FF7E702440346934200D160
:1056A000704703F8011BF9E738B50D4B1C68A36B75
:1056B00005467BB9182000F04FF80A4A0A4BA06350
:1056C000C0E90023094B83600B238381012200235F
:1056D000C0E90423A36B00221D615A6138BD00BFDD
:1056E000200000200E33CDAB34126DE6ECDE050059
:1056F00038B5134B1C68A36B7BB9182000F02CF84D
:10570000104A114BA063C0E90023104B83600B23A8
:10571000838101220023C0E90423A16B0C480A699C
:105720004B690C4C504304FB0300A2FB04230344CD
:10573000541C43F10005C1E9044525F0004038BD83
:10574000200000200E33CDAB34126DE6ECDE0500F8
:105750002DF451582D7F954C024B0146186800F0EE
:1057600003B800BF2000002070B5CD1C25F0030554
:1057700008350C2D38BF0C25002D064601DBA9424B
:1057800003D90C233360002070BD00F057F8214A84
:105790001468214691B9204C23681BB9304600F0AB
:1057A0003DF820602946304600F038F8431C24D1EB
:1057B0000C233360304600F042F8E4E70B685B1BD3
:1057C00018D40B2B0FD90B60CD50CC18304600F0FD
:1057D00036F804F10B00231D20F00700C31AD3D0C4
:1057E0005A42E250D0E78C424B6816BF63601360A8
:1057F0000C46EBE70C464968CCE7C41C24F00304D4
:10580000A04205D0211A304600F008F80130CFD070
:105810002560DBE78C0900209009002038B5064C94
:10582000002305460846236000F0DAF9431C02D144
:10583000236803B12B6038BD98090020704770477A
:105840007BB972B90029BEBF00204FF0004106E0CD
:1058500008BF00281CBF6FF000414FF0FF3000F080
:10586000BDB9ADF1080C6DE904CE002909DB002BB0
:105870001ADB00F04DF8DDF804E0DDE9022304B0A6
:105880007047404261EB4101002B1BDB00F040F808
:10589000DDF804E0DDE9022304B0404261EB4101A0
:1058A000524263EB43037047524263EB430300F001
:1058B0002FF8DDF804E0DDE9022304B0404261EB9B
:1058C00041017047524263EB430300F021F8DDF8D9
:1058D00004E0DDE9022304B0524263EB4303704766
:1058E00053B94AB9002908BF00281CBF4FF0FF3147
:1058F0004FF0FF3000F072B9ADF1080C6DE904CE45
:1059000000F006F8DDF804E0DDE9022304B070479A
:105910002DE9F047089E04468846002B4BD18A4269
:10592000154667D9B2FA82F24AB1C2F1200701FAEC
:1059300002F320FA07F7954047EA030894404FEA3C
:10594000154E230CB8FBFEF71FFA85FC0EFB1788DB
:1059500043EA084307FB0CF1994209D9EB1807F118
:10596000FF3080F01B81994240F21881023F2B44A6
:105970005B1AA4B2B3FBFEF00EFB103344EA0344FF
:1059800000FB0CFCA44509D92C1900F1FF3380F071
:105990000781A44540F2048102382C4440EA0740C4
:1059A000A4EB0C0400271EB1D4400023C6E9004339
:1059B0003946BDE8F0878B4209D9002E00F0EB8014
:1059C0000027C6E9000138463946BDE8F087B3FA3A
:1059D00083F7002F47D18B4202D3824200F2FA8034
:1059E000841A61EB030301209846002EE0D0C6E93B
:1059F0000048DDE702B9FFDEB2FA82F2002A40F089
:105A00008F80491B4FEA154E1FFA85F80127B1FB1D
:105A1000FEFC230C0EFB1C1143EA014308FB0CF1B6
:105A2000994207D9EB180CF1FF3002D2994200F2EB
:105A3000CD808446591AA3B2B1FBFEF00EFB1014C0
:105A400043EA044408FB00F8A04507D92C1900F1EB
:105A5000FF3302D2A04500F2B6801846A4EB08043A
:105A600040EA0C409FE7C7F1200CBB4022FA0CFE35
:105A70004EEA030E01FA07F420FA0CF521FA0CF3B2
:105A80004FEA1E482543B3FBF8F92C0C08FB1933E9
:105A90001FFA8EFA44EA034309FB0AF49C4202FA15
:105AA00007F200FA07F10BD91EEB030309F1FF30EF
:105AB00080F087809C4240F28480A9F102097344FF
:105AC0001B1BADB2B3FBF8F008FB103345EA0344EF
:105AD00000FB0AFAA24508D91EEB040400F1FF33CB
