:020000040800F2
:1000000000000220B9520008B7520008B55200089B
:10001000B5520008B5520008B552000800000000B3
:10002000000000000000000000000000B7520008BF
:10003000B752000800000000B752000899160008E7
:10004000B5520008B5520008B5520008B552000874
:10005000B5520008B5520008110C0008B55200084E
:10006000B552000869040008E5120008B5520008FE
:10007000B5520008B5520008B5520008B552000844
:10008000B5520008B5520008B5520008B552000834
:10009000B5520008B5520008B5520008B552000824
:1000A000B5520008B5520008B5520008B552000814
:1000B000B5520008B9060008B5520008B55200084C
:1000C000B5520008B5520008B5520008B5520008F4
:1000D000B5520008B5520008B5520008B5520008E4
:1000E000B5520008B5520008B5520008B5520008D4
:1000F000B5520008B5520008B5520008B5520008C4
:10010000B5520008B5520008B5520008B5520008B3
:10011000B5520008B5520008B5520008B5520008A3
:10012000B5520008B5520008B5520008B552000893
:10013000B5520008B5520008B5520008B552000883
:10014000B5520008B5520008B5520008B552000873
:10015000B5520008B5520008B5520008B552000863
:10016000B5520008B5520008B5520008B552000853
:10017000B5520008B5520008B5520008B552000843
:10018000B5520008B5520008B5520008B552000833
:10019000B5520008B5520008B5520008B552000823
:1001A000B5520008B5520008B552000808B50A213A
:1001B000002000F0F1FA0A210620BDE8084000F016
:1001C000EBBA00000D4B10B50C46187004F0E0F9C6
:1001D0000B4B1C6001F068FA0A4B18600A4B0022B6
:1001E0001A600A4BC3E900049A721A72DA605A72F2
:1001F0001A751A615A75064B186010BDA8000020C8
:1002000000000020B0000020AC0000209000002082
:10021000B400002040B1054B1860054B1A60054B37
:1002200000221A60FFF7C2BF704700BF0000002025
:10023000B0000020AC000020014B1868704700BFE0
:100240000000002038B50B4D04462878A0420FD09E
:1002500004F094F920462C7004F09AF9064B002221
:1002600004F0FB041A60022C044B08BF01225A75EB
:1002700038BD00BFA8000020AC0000209000002086
:100280002DE9F843224D234FDFF8A49001F00CFA3A
:100290002B68A0EB03083B680646A3B11E4A116811
:1002A000441AA34228D8B4FBF3F4002C08BF01245D
:1002B00004FB03131360FFF779FFD9F800301C44E7
:1002C000C9F8004001233A68144F1548154C397895
:1002D0004172217883720175D9F80030417D066042
:1002E0004260C0E9033849B10023437500232370FD
:1002F0003B702E60BDE8F8830023E4E70A4B1A78D0
:100300000A4B53F82230002BF0D09847EEE700BF9D
:10031000B400002000000020B00000208C0000206D
:1003200090000020B8000020A800002050540008D1
:10033000AC000020044B01221A70044B1870044BCF
:1003400000221A60704700BFB80000208C00002017
:10035000AC000020014B1872704700BF90000020D5
:10036000034A00231370034AC2E9003393607047C5
:10037000B9000020BC0000202DE9F04801F094F9FC
:10038000314A1368C31A042B06465BD91060082152
:100390002E4804F07EFD002854D02D4D2B68002BF4
:1003A0004FD02A68B21AA2F1210141F24F7399424B
:1003B00045D82848284C01784B1CDBB2022B03702F
:1003C00044F821203DD9D4E90072002117EB020B3B
:1003D000A46841F1000CBA42134628BF3B46BA421A
:1003E00038BF3A461BEB04004CF10001A34228BF82
:1003F000234694422CBFC3EB0403C3EB020340F635
:10040000B83293421BD80023032204F0ABFA41F226
:1004100070748442114F28BF0446212C3B6838BFBA
:100420002124A3420BD0092004F0C6FF0C4B3C60F2
:100430001E600C4B012209201A7004F0AFFFFFF779
:100440008FFF2E60BDE8F088CC0000200004024041
:10045000D0000020B9000020BC000020D8000020FF
:10046000D4000020C800002008B5082004F036FCA5
:1004700030B1FFF781FF0820BDE8084004F028BC38
:1004800008BD000010B540F2016004F042FD144CBC
:1004900040F68E0004F03DFD002211460823204660
:1004A00004F0FAFC092004F079FF2146082004F04A
:1004B0001BFC0021082004F0E3FB082004F0FEFBF5
:1004C000084A00231360084A1360084A1360084A68
:1004D0001360084ABDE810401370FFF741BF00BF2A
:1004E00000040240D0000020CC000020D8000020F2
:1004F000D4000020C800002010B5092004F05CFFE3
:10050000044B1C780022E4B209201A7004F046FF64
:10051000204610BDC800002038B50546092004F06B
:100520004BFF084B1C68092004F038FF3CB104F570
:100530009C500830A8422CBF0020012038BD01206B
:10054000FCE700BFCC00002010B501F0ADF8FFF7CC
:10055000E3FF48B9092004F02FFF044B09201C6871
:1005600004F01CFF204610BD0024FBE7D80000204B
:1005700010B501F099F8FFF7CFFF48B9092004F052
:100580001BFF044B09201C6804F008FF204610BD27
:100590000024FBE7D40000202DE9F0414FF4C060B7
:1005A00004F0B7FC40F2016004F0B3FC40F20260DA
:1005B00004F0AFFC40F68E001E4E04F0AAFC0024AE
:1005C000374656F83450E30005B30B2CE2B222D97B
:1005D000112A08D0A2F11200414241410C2C26D030
:1005E0000F2A24D0C9B13B440022B3F80480012172
:1005F0004346284604F050FC002128464346022288
:1006000004F06CFC4146284604F040FC0134132CF5
:10061000D7D1BDE8F0810121E0E7102AF6D13B44B3
:1006200002229B880021284604F036FCEEE70029D0
:10063000F5D0D8E7A054000810B500231B4A19468E
:1006400002EBC300017142F833100133132BF7D1D1
:1006500040F6010004F05DFC40F2014004F066FC4D
:10066000134804F0E9FD002319461A4604461048D1
:1006700004F009FE0E480F49B4FBF1F1013904F012
:1006800015FE40F2E7310A4804F012FE084804F073
:1006900003FE0121064804F0E9FD1D2004F07EFE62
:1006A0000348BDE8104004F0FCBD00BFDC000020A2
:1006B0000004004040420F002DE9F8430121134897
:1006C00004F0D8FD00B301211048114E114F04F081
:1006D000D7FD00F0E9FF00258046B146EC00331954
:1006E0001B7973B156F83530A8EB0303002B08DBF8
:1006F000E05918B13B19998804F0C8FB4C44002319
:10070000237101350C2DE9D1BDE8F88300040040C8
:10071000DC000020A0540008012808B50CD003D349
:10072000022811D000200EE00948012104F0B1FB9D
:10073000003018BF012006E00221054804F0A9FBA3
:10074000B0FA80F0400908BD10210248EEE700BF72
:100750000000024000040240122810B402460C4679
:1007600015D80C4B53F8300088B10B2A03D9A2F1ED
:10077000110101290BD803EBC20399881CB15DF864
:10078000044B04F081BB5DF8044B04F07FBB5DF8C3
:10079000044B7047A05400081228F8B504460D46D3
:1007A0001ED8E9B10F4B53F83030CBB10B2817D816
:1007B0000D4F07EBC4061D2004F0FEFD337953B93D
:1007C00001212046FFF7C8FF00F06EFF01232844F7
:1007D00047F8340033711D20BDE8F84004F0DEBD59
:1007E000F8BD00BFA0540008DC0000202DE9F04156
:1007F0001D2004F0E1FD00240B4E0C4FA04656F8DE
:100800003400E50040B173193D44998804F03EFB83
:1008100085F8048047F8348001340C2CEFD11D207A
:10082000BDE8F04104F0BABDA0540008DC0000208F
:1008300038B5064D0024605918B12B19998804F079
:1008400025FB0834602CF6D138BD00BFA054000849
:100850007047421E00F1A703002012F8011F9A42C0
:100860000844FAD170470000F0B5ADB0364B0193A3
:10087000002540F25933074608938DF808502C465E
:1008800001AB2B440135142D5C71F9D14FF47A7210
:1008900040F203330126CDE90923002102232A4631
:1008A0000EA88DF835308DF82C408DF82D408DF840
:1008B0002E608DF82F408DF830608DF831408DF826
:1008C00032408DF833608DF834408DF8366003F097
:1008D00075FF2A46002115A88DF84C40149403F0AA
:1008E0006DFF2A4600211BA8ADF868408DF86A40CC
:1008F0008DF86B6003F062FF64232A468DF8803028
:100900000021124B219326A88DF881608DF8884034
:100910008DF889608DF88A40ADF88C60CDF88E40F6
:10092000CDF89240ADF8964003F048FF01A82B9413
:10093000FFF78FFFAC222B9001A9384603F033FF5D
:1009400038462DB0F0BD00BFEFBEADDE01EEFFC0FA
:1009500030B50446ADB068B1564D574B2A689A423F
:100960000AD06846FFF780FFAC226946204603F0B4
:100970001AFF00202DB030BD2846FFF76AFFD5F8DA
:10098000A8308342EDD1AC222946204603F00BFF6C
:100990002379132B84BF00232371E36941F24F7243
:1009A000213B9342226A84BF40F25933E361A2F1B2
:1009B0000A0140F2DE33994205D83221B2FBF1F34D
:1009C00001FB132313B14FF47A73236294F824309C
:1009D00094F83120072B84BF032384F8243094F843
:1009E0002530072B84BF032384F8253094F8263064
:1009F000092B84BF002384F8263094F82930642B17
:100A000084BF002384F8293094F82B30322B84BF24
:100A1000002384F82B3094F82E30642B84BF0023FD
:100A200084F82E30082A04D84FF48A73D340DB07A9
:100A300002D4022384F83130B4F86430C3F30903DC
:100A4000A4F8643094F866300A2B84BF0A2384F833
:100A5000663094F87C30C82B84BF642384F87C30E3
:100A600094F88530013B092B84BF012384F885303D
:100A7000B4F88830C3F30903CBB1A4F8883004F18B
:100A8000940104F18A031A7802F00F0203F8012B93
:100A90008B42F8D1631D0022193413F8011B012980
:100AA00088BF03F8012CA342F7D1012062E701239C
:100AB000E3E700BF00000608EFBEADDE2DE9F04120
:100AC000D6B0E0B1AC220146684603F06CFE0023CC
:100AD00068462A93FFF7BDFE2A9004F071F90221BF
:100AE000072004F0A5F9224A1746136813F480344E
:100AF000FBD113F0F00F05D004F06EF9204656B08C
:100B0000BDE8F0811B4D1C4E2B68DFF8708043F070
:100B100001032B6006F1774303F57A0330465DF855
:100B2000031004F06DF93B6813F48034FBD113F02B
:100B3000F00F04D02B6823F001032B60DCE70436B0
:100B40004645E7D12B6823F001032B6004F044F9FC
:100B5000AC2209490DEB020003F025FEAC220DEB9F
:100B60000201684603F010FEB0FA80F04009C6E7C3
:100B70000C3C0240103C024000000608AC00060895
:100B800038B54FF4C06004F0C4F940F68E0004F0AC
:100B9000C0F9164A164D136843F080731360154B65
:100BA000154A00241C60136843F0010313600123FD
:100BB0001A462146284604F06FF9062004F0EEFBA1
:100BC0002946012004F090F80121084604F058F865
:100BD000012004F073F8094B1C60094B1C60094BA1
:100BE0001C60094B1C70094B1C7038BDFCED00E00B
:100BF00000000240041000E0001000E07C01002032
:100C00007801002084010020800100207401002070
:100C100038B5012004F05CF800F046FD104B114996
:100C20001A68114B1C7824B10C68104D141BAC428F
:100C300006D91D780E4C25B920600A6001221A7071
:100C400038BD0B68D31A1FBF03F524431033094D79
:100C5000B3FBF5F3084D2B602060084B0A60EDE70D
:100C6000041000E078010020740100203F164000CD
:100C70007C01002020480100840100208001002028
:100C8000034B1A7802F0FF000AB100221A70704775
:100C900080010020014B1868704700BF84010020CC
:100CA000014B1868704700BF7C0100200A4A117888
:100CB000034601F0FF0069B1084909685B1A42F276
:100CC00010718B424FF0000303D91370044A136074
:100CD00070471846704700BF740100207C01002057
:100CE00084010020024A00231370024A13607047F7
:100CF0009401002090010020134B10B500241C70BB
:100D0000124B1C60124B204621461C7003F02AFD3A
:100D1000104B1C60104B1C70104B1C60104B1C6067
:100D2000104B1C70104B01201C7003F0D7FF10B14A
:100D3000012003F0CDFF0D4B1C700D4B1C700D4BB3
:100D400001221A7010BD00BF95010020D4010020BF
:100D5000C0010020D8010020B4010020B80100200B
:100D6000C4010020C3010020C8010020C2010020EE
:100D7000C10100209C01002038B5284C284D20607E
:100D80002848016028490A60284A1360284B049AC1
:100D90001A60284B059A1A60274B069A1A604FF47E
:100DA000C06004F0B6F840F2016004F0B2F840F61A
:100DB0008E0004F0AEF80223012200211F4804F047
:100DC0006BF8022210230021284604F065F8FFF793
:100DD000D7FEFFF757FB2946102003F085FF0021BF
:100DE000102003F04DFF102003F068FF0A2004F0EC
:100DF000D5FA206800F0CAFA114B00241C60114B90
:100E00001C70114B1C70114B1C60114B1C70FFF7B8
:100E100069FFFFF771FF0F4B1C7038BDDC0100202C
:100E200000040240BC0100208C0100209801002039
:100E3000CC01002088010020B00100200000024009
:100E4000A00100209601002097010020AC010020A5
:100E5000A80100209C010020014B1870704700BFC2
:100E6000A80100202DE9F84F00F01EFC04460020E8
:100E7000FFF752FC022106469A48DFF8AC9204F0D4
:100E800008F8994B99491A78B0FA80F77F09BA4265
:100E900018BFC9F80040D9F800201F70A21A322AE2
:100EA0000B78884602D99F4218BF0F7098F800B09F
:100EB000BBF1000F00F0FB8183F001034FF0000A4B
:100EC0008B4D2A78042A39D8DFE812F00500370064
:100ED00055009600C700874B1A780AB106B91E70F4
:100EE0001B78002B40F02281002E00F01F81824BE6
:100EF0001B78002B40F01A8101232B707F4B1C6064
:100F0000FFF7BEFE08B1FFF7C5FE00F027FA88F82C
:100F10000070C9F800402B78002B00F00781FFF724
:100F2000AFFE08B1FFF7B6FE734B1B78002B00F045
:100F30004E81BDE8F84FFFF7D5BE16B9FFF7DCFECE
:100F4000E9E76E4B1B68E31AB3F57A7FE7D36C4A87
:100F5000002313706B4A13706B4A012113706B4AA4
:100F60000846137003F0FEFB694B1B6803B19847FA
:100F700002232B70CFE74EB3604B1B6841F28732E0
:100F8000E31A9342DAD8614A117851B9B3F5FA6F8E
:100F900007D3012313705C4A13705D4B1B6803B1C8
:100FA0009847BBF1000F0ED00021012003F0DAFBBF
:100FB000BAF1000FAFD0534A137801331370504B7E
:100FC00001221A70A7E701210846EFE70121084630
:100FD00003F0C8FB4A4B1B7853B14A4B1B78002BDC
:100FE000ACD004232B704B4B1C604B4B1E7092E714
:100FF0004A4B1C600323BCE713B1484B00221A6024
:10100000BBF1000F10D00021012003F0ABFBBAF1BF
:10101000000F0CD03B4B01221A7004232B703D4B68
:1010200000221C603C4BCCE701210846EDE73B4B1E
:101030001B68002B3FF46FAFE31A41F287329342F3
:101040007FF669AF324B1B6803B19847344B1B687E
:10105000002B3FF473AF984770E7BBF1000F3AD015
:101060000021012003F07EFB2A4FBAF1000F04D0CB
:10107000244A3C60137801331370DFF89C806EB310
:1010800098F80030FBB91F4E3278BAB1204B1B687C
:1010900003B19847234B1A6882B11B4B30781B78F9
:1010A0005BB10A2807D901380A21B0FBF1F301FB33
:1010B00013000130C0B20A30C0B29047FFF71CFEE7
:1010C000012388F800303B6842F20F72E31A934222
:1010D0007FF621AF32E701210846C3E788F80060B8
:1010E000F1E700BF00000240C8010020C30100205A
:1010F000950100209C01002094010020D4010020D3
:10110000B4010020C0010020C2010020C101002064
:1011100088010020B8010020D0010020D801002063
:10112000CC010020BC010020C4010020FFF7E4F93D
:10113000604F064600284CD0FFF706FA0646FFF738
:1011400017FA3B78DFF8988102461BB1D8F80030D7
:10115000B34206D0584B1B681BB116B10121304673
:10116000984701233B70C8F8006000F0F7F8534B34
:101170001B780BB1FFF7B6FD3B7843BB00F094FA48
:101180004F4F064602214F4803F083FE3A78A2F102
:101190000B03082B494B61D81A78002A78D0012A12
:1011A00044D0494D00F0F8F82B7883B1474E3368AE
:1011B00013B1E31A642B08D93B780A2B0CBF444BBC
:1011C000444B1B6803B19847346000232B70BDE883
:1011D000F88F2046FFF7A0F90028CDD03B78002BF0
:1011E000CCD0354B3E701A68DFF8F4909A46CAB1FD
:1011F000D9F8006041F24F78A6F12103434508D9A0
:1012000000F042F940F25936A0F12103434598BF5E
:101210000646304600F03EF9DAF80030224600215A
:10122000304698470023C9F80030A5E72A4B1B68D1
:10123000F31A002836D0B3F5FA7F0CD8234D2A686C
:1012400012B1B21A642A06D9244B1B6813B1314675
:10125000002098472E60FFF745FDA2E71978B9B145
:1012600001299ED11C4B1B68F31AD8B1B3F5FA7F44
:10127000F1D8164D2B6813B1F31A642BEBD90A2A57
:101280000CBF134B134B1B68002BE3D09847E1E7CF
:10129000002886D12A78002A83D101221A700E4BA9
:1012A0001E607EE7B3F5FA7F7FF67BAFD3E79A4601
:1012B0005B4605E697010020DC0100209401002038
:1012C000A80100200000024096010020A00100209B
:1012D000980100208C01002090010020B001002026
:1012E000AC01002038B5102003F0F8FCD8B10E4C4A
:1012F00000F0DAF92268821A092A05460ED910216F
:101300000A4803F0C6FD48B1094B1B782BB9094BBD
:101310001B7813B9084B01221A7025601020BDE814
:10132000384003F0D5BC38BDA401002000040240C1
:10133000950100209701002096010020054B1B68B5
:1013400010B50A46044623B118B100219847024B54
:101350001C6010BDFC010020E0010020064A0023B3
:101360001370064A1370064A1360064A1360064A51
:10137000C2E9003393607047E8010020F8010020C3
:10138000E4010020E0010020EC010020014B186086
:10139000FFF7E4BFFC01002070B5FFF771FC0028E7
:1013A00069D0FFF77DFC0446FFF774FC41F24F72F1
:1013B000A0F121019142034603D9BDE87040FFF737
:1013C000CDBF2D490A78B2BB2C4D2D482E78721C0A
:1013D000D2B2022A2A7040F826304CD9D0E9003225
:1013E0009342806841D9834202D806461846334664
:1013F000824202D91646024630469B1A12224243C6
:101400006426B2FBF6F20A2A38BF0A229342D4D8E5
:1014100040F6B8329342D0D801230B70194B1860B4
:1014200000232B702146BDE87040FFF787BF1E46A2
:1014300013463246DCE7134A1068984234BF1D1A3F
:10144000C51A810808BF0121A942EBD31B1A082144
:1014500093FBF1F3184441F270739842A8BF184609
:101460002128B8BF21201060DCE78242DFD8164671
:101470001A460346C0E770BDF8010020E8010020CD
:10148000EC010020E4010020014B1868704700BF08
:10149000E0010020014B1860704700BFE001002010
:1014A000044B1A7822B1002112201970FFF754B9A9
:1014B000704700BF0C020020024B1878003018BFA4
:1014C000012070470C02002070B5174C2378012BC7
:1014D000054604D01AD3022B19D000230EE0134E78
:1014E0003368C31A002B11DB00211220FFF734F9F7
:1014F0000F4A1378013BDBB213700BB9237005E080
:10150000022323700B4B1B681D44356070BD074ED2
:101510003368C31A002BF9DB01211220FFF71CF9F5
:1015200001232370044BEEE70C0200200002002090
:101530000D0200200402002008020020014B0122BD
:101540001A707047C402002008B5FFF7A9FF0121F7
:101550001220FFF701F9034B034A1B686433136041
:1015600008BD00BFCC020020C802002008B5054B12
:101570000A461878002101F0A3FCBDE80840FFF7F7
:10158000E3BF00BFBD020020FFF7DEBF10B50D4C6A
:101590002378B3FA83F35B092370FFF727F901205F
:1015A000FEF7C8FE2078FEF7D5FE074B1A78132AFF
:1015B00004D81978054B22780B445A71BDE81040C5
:1015C000FFF7C2BFBC020020BD02002010020020B5
:1015D00008B528B1FEF71EFEBDE80840FFF7B4BF0E
:1015E00008BD000038B50C4B1C78E5B20A2D11D1AE
:1015F00001F0A2FB013090FBF5F405FB1404E4B20A
:10160000204601F091FB054B83F82640BDE83840A9
:10161000FFF79ABF38BD00BFBD02002010020020B6
:101620000138C0B2132838B52CD8174C174D20708C
:101630002378132B04D82278154B13445B792B7035
:10164000FFF7D4F8FFF7F4F80020FEF773FE2078D8
:10165000FEF7F8FD0021084603F084F82878FEF72D
:1016600079FE0B49207800F0D1F92078FFF7F4FBE0
:10167000207802F0C7FF02F0A1FFFFF765FF054BDE
:1016800001221A7038BD00BFBD020020BC0200203C
:1016900010020020C4020020024A136801331360C4
:1016A000704700BFCC020020014B1868704700BF94
:1016B000CC0200202DE9F04F8548864D864C874EA0
:1016C000DFF85082864FB3B003F03CFD002003F0FA
:1016D00049FE42F6031003F03DFE03F04FFE03F017
:1016E00055FE4FF4C06003F014FC40F2016003F0BB
:1016F00010FC40F2026003F00CFC47F6F07301228C
:101700000021784803F0C8FB842301220021764899
:1017100003F0C2FB4FF4604301220021734803F041
:10172000BBFBFEF739FFFEF787FFFFF791F828466E
:10173000FFF70EF92B792370002800F0B980237889
:10174000132B00F2AB8023782B445B793370EB6969
:1017500041F24F72213B934202D940F25933EB617F
:101760005C48DFF8ACA100F0DBF82078E969FEF70F
:1017700029FD5849207800F049F9D8F80000784050
:1017800003F024F85A4B02935A4B01935A4B5B4A8D
:101790005B4900935B485C4BFFF7EEFA2078FFF75C
:1017A0005BFB3078FEF7D6FD02F024FF207802F0D4
:1017B00029FFD8F800703846FFF778FA08B1FFF72C
:1017C000CDFDFFF74FFBFEF75BFD384602F02EFF25
:1017D0003846FFF779FEFFF76FFE834670B9DFF8F2
:1017E0003891D9F800204AB1D9F80020BA4205D87A
:1017F00001461220FEF7B0FFC9F800B09AF8003099
:10180000002BD6D0DFF81491D9F80030FB1AB3F5CD
:101810007A7FCED9FFF70CF8FEF7E8FF3B4B079332
:10182000FEF70AFD23780E908DF8203005220DF189
:101830001C0BA95C02F80B100132192AF9D122788D
:10184000132A05D82278317832AB1A4402F8A71C43
:10185000204920785A4600F03CF9002258468DF87D
:10186000432031920592FEF7F4FF31905846FFF77E
:1018700025F9059A04901046FEF75CFD3078FEF7D6
:1018800069FD049921B1AC225946124802F08BFF40
:101890001F4AC9F80070002313708AE700232370E1
:1018A0002278337023782A712B4432785A714EE7AC
:1018B000307040F25933EB612378132B9FBF2378AC
:1018C0005B195B79337040F20333AB8448E700BFA8
:1018D0009859000810020020BD020020BC02002020
:1018E0000DD001C000000240000402400008024088
:1018F0006D150008891500083D1500088D150008B4
:1019000021160008D1150008E5150008EFBEADDE70
:10191000C4020020CC020020C8020020C002002027
:10192000026A40F2DE33A2F10A01994205D832215F
:10193000B2FBF1F301FB132313B14FF47A7303628B
:1019400090F8243090F83120072B84BF032380F8CF
:10195000243090F82530072B84BF032380F82530EE
:1019600090F82630092B84BF002380F8263090F8A9
:101970002930642B84BF002380F8293090F82B3065
:10198000322B84BF002380F82B3090F82E30642B4C
:1019900084BF002380F82E30082A04D84FF48A73BD
:1019A000D340DB0702D4022380F83130B0F8643032
:1019B000C3F30903A0F8643090F866300A2B84BFA3
:1019C0000A2380F8663090F87C30C82B84BF6423EB
:1019D00080F87C3090F88530013B092B84BF0123CF
:1019E00080F88530B0F88830C3F3090363B1A0F8FC
:1019F000883000F18A0394301A7802F00F0203F85D
:101A0000012B9842F8D170470123F0E7092813B55C
:101A10000C464ED1086A00F025FC94F82A2094F870
:101A2000291094F8280000F06DFE94F82C1094F81A
:101A30002B0001F09DF894F82F2094F82E1094F8C4
:101A40002D0002F06BF904F1340394F8322094F87D
:101A5000311094F8300002F08DFB04F15002E16C7B
:101A600094F8480001F02AFB04F1680394F8672019
:101A700094F86610B4F8640001F03AFD94F87D1013
:101A800094F87C0000F018FD94F88410D4F88000DD
:101A900002F08EFA04F194030093B4F8882094F8CD
:101AA000861094F8850004F18A0300F025F902B04D
:101AB00010BD052806D191F8251094F8240002F0F5
:101AC0003DFDAAE70A28A8D191F8260001F02CF9DB
:101AD000A3E7092873B506460D4614465DD100F00C
:101AE000BBFB206295F8243084F8243095F825302B
:101AF00084F825300A2E5AD101F01EF984F8260008
:101B000004F12A0204F1290104F1280000F008FE82
:101B100004F12C0104F12B0001F034F804F12F0240
:101B200004F12E0104F12D0002F006F904F1340352
:101B300004F1320204F1310104F1300002F040FB03
:101B400004F1500204F14C0104F1480001F0D6FA0E
:101B500004F1680304F1670204F1660104F1640012
:101B600001F0FAFC04F17D0104F17C0000F0AEFC10
:101B700004F1840104F1800002F024FA04F19403DA
:101B8000009304F1880204F18A0304F1860104F150
:101B9000850000F0F9F802B070BD0B6A13620528E9
:101BA000A0D102F1250102F1240002F0D9FC95F840
:101BB000263084F82630A3E7F0B5264A00238BB000
:101BC0001C461746995C29B90AA901EB8401013426
:101BD00041F8283C01330A2BF4D1002C37D002F015
:101BE00019FE90FBF4F303FB14000AAB03EB800037
:101BF000012650F8285C7E5502F00CFE434203F0AB
:101C00000F0300F00F0058BF5842134B585502F015
:101C100001FE044602F0FEFD634203F00F0304F0F0
:101C20000F0458BF5C42434203F00F030B4A00F01D
:101C30000F0058BF5842E4B2C0B232F8153006FA6D
:101C400004F406FA00F004435C4022F815400BB09F
:101C5000F0BD00BFD5020020E8020020F402002001
:101C600038B5124B124C1348134901221A70134A0B
:101C700000231360124A1370124A1370124A136041
:101C8000124A13701A461A551A5421F813200133B8
:101C90000A2BF8D1FFF790FF0D4D0024285D00219D
:101CA0000134FEF759FD0A2CF8D138BDD4020020CA
:101CB000D5020020E8020020F4020020D00200201B
:101CC000DF020020E1020020E4020020E002002008
:101CD0005A58000808B5FFF7C3FF024B00221A60EC
:101CE00008BD00BFE4020020024A137883F001031C
:101CF00013707047DF0200202DE9F0431C4DDFF820
:101D00007CC028701B48079E0170DFF87490DFF8D4
:101D1000748000210C462846E64642FA01F505F09B
:101D20000107ED0748BF013401F80C7048BFE4B269
:101D30004F00CBB15D5C05F00F0509F80150AEB165
:101D400036F8115028F8075001310A29E5D104B1BD
:101D5000047003781BB9012303708EF80030064B22
:101D600000221A70BDE8F0837D18E4E73546E9E704
:101D7000D4020020DF020020E0020020D502002073
:101D8000E8020020F4020020F0B5059C10B1144DCB
:101D90002D78057011B11348007808706AB10021E0
:101DA000114D084601264F5D1FB106FA01F7384371
:101DB00080B201310A29F6D1108033B10B4A116883
:101DC00019605168596012891A8144B1084B03F1B6
:101DD000140253F8041B44F8041B9342F9D1F0BDDC
:101DE000D4020020DF020020D5020020E8020020FB
:101DF000F40200202DE9F047374E037A3370037D5B
:101E000013B1364B00221A70354BD0E90021186807
:101E100000B91A60186890424FD88908052938BF60
:101E20000521084490423CBF52181A602D4A28BF31
:101E300018601368294D2C4F013313602B789BB920
:101E40002A4B1B7883B92A4C2A4822780178013220
:101E5000D2B28A422270844606D3092923702ED832
:101E600001310170FFF7A8FEDFF88C80DFF88C905D
:101E7000DFF88CA000243B5DABB12146307801F047
:101E80007DFE38F814302A78584014F8093013448D
:101E900003F00F0380B21841C30704D50A211AF8D2
:101EA0000400FEF779FC01340A2CE4D12B780133CD
:101EB000DBB20F2B88BF00232B70BDE8F0870E49E3
:101EC0001A46FA5421F8132001330A2BF9D10123C1
:101ED0008CF80030C6E700BFF2020020E1020020CB
:101EE000E4020020D0020020D5020020DF02002002
:101EF000E0020020D4020020F4020020E8020020CA
:101F00005A580008F4EEC10AF1EE10FA04D5B4EE06
:101F1000C01AF1EE10FA0ED9B5EEC01AF1EE10FAB1
:101F20000BD5F4EEC10AF1EE10FA06DDB4EEC01ADC
:101F3000F1EE10FA13DB01207047B5EEC01AF1EE96
:101F400010FA11DBF4EEC10AF1EE10FA0CDDB4EE7A
:101F5000C01AF1EE10FAACBF012000207047B5EEB8
:101F6000C01AF1EE10FAF2DA0020704710B5012124
:101F70000446FEF7F1FBFFF797FB024B43F8240002
:101F800010BD00BF18030020154B164A164970B546
:101F90001A6000230B601549154E0B6015490A6045
:101FA000154A1360154A002513602C4646F8254053
:101FB000E8B200210135FEF7CFFB0C2DF6D1104B16
:101FC000104A1C605C609C60DC601C610E4B1460FD
:101FD00054609460D46014614FF47A721A6070BDDA
:101FE00008000020CDCCCC3D080300200C030020CD
:101FF000180300200C000020100300201403002010
:1020000078030020640300200400002070B5114E06
:1020100001240025052CE0B202D9C31F042B04D8EB
:102020000021FEF799FB46F8245001340C2CF1D125
:10203000094A0A490023136053609360D360136117
:102040000B604B608B60CB600B61054B4FF47A7279
:102050001A6070BD1803002078030020640300207C
:10206000040000202DE9F74F0546FFF71DFB002473
:102070006A4E0746A046E0B274B106280CD056F866
:1020800024304FEA84093BB1FB1A092B04D9002103
:10209000FEF762FB49F8068001340C2CEBD16B7A19
:1020A0003BB15F4A13680A2B00F2AD804FF47A739C
:1020B00013602B69002B00F0AB80642B28BF6423D6
:1020C00007EE903AF8EEE77AB2EE046A87EE867A87
:1020D00054485549554E564C564D574FCDE9000181
:1020E0000022D5ED006ADFED553ADFED555AC1ED1E
:1020F000006AFDEEC77A94ED007A17EE903AD6EDBD
:10210000007A80ED007A012BB8BF0123C7ED007A79
:10211000B3EE0C3A33EE665AB0EE474A95EE274AD4
:102120000132934223EEE65A77EE674AA7EE875ACA
:1021300064EE864AA4EE257AE4EEA57AE5EE256AF9
:10214000E8D1DFF80881DFF8D4A0DFF8D4B0C5ED1E
:10215000006A84ED007AC6ED007A4FF00109B8EC10
:10216000011AD7ED000A96ED000A5FFA89F1FFF730
:10217000C9FEA0B1334B03EB890050F8042C0132A7
:1021800040F8042C5AF8290048B9DBF80030B2FBBB
:10219000F3F003FB102212B90846FFF7E7FE09F13E
:1021A0000109B9F1060FDAD1274FDFF8A480DFF873
:1021B000A4A0DFF86890002616F80830B7EC011AE2
:1021C00043B394ED000A009BD3ED000AFFF79AFE9B
:1021D00098B109EB86025AF82630D269F01D013316
:1021E000C0B24AF8263042B90D4A1168B3FBF1F289
:1021F00001FB12330BB9FFF7B9FE0136052EDBD117
:1022000003B0BDE8F08F323B092B98BF0A234FE79C
:10221000012355E795ED000A019BD5E7180300203F
:1022200004000020100300201403002008000020F8
:10223000080300200C0300200C000020BE9F2A4051
:102240000AD7233C640300204C5500083855000889
:102250006055000878030020014B1868704700BFE4
:1022600004000020A0F10A0240F2DE339A42074A3D
:1022700007D83221B0FBF1F301FB13030BB9106057
:1022800070474FF47A731360704700BF040000205A
:102290002DE9F74F474A90F808B01478D0E9008A42
:1022A0008146AAF12103002C3FD0817A002939D040
:1022B00041F24F718B4235D80024147021464C22D4
:1022C0003D48DFF8049102F079FA3C4B3C4A59F85A
:1022D000246026B3BAFBF6F60A2E38BF0A26E05C65
:1022E000A55CBBF1000F02D1014628460D46354FD3
:1022F00008EB060147F8251047F8201057F825107D
:1023000041450CD80A212846CDE90032FEF744FAAF
:1023100057F82510DDE900320E4447F825600134F6
:10232000052CD4D103B0BDE8F08F41F24F72934237
:10233000F8D8254B53F82420002A37D01F4BE55CF2
:102340001F4BE65CBBF1000F02D033462E461D4604
:102350001C4B53F82510414516D8BAFBF2F70A2159
:102360000A2F284638BF0A2701930092FEF714FA75
:10237000019B009A53F825103944414536BF474424
:1023800043F8251043F8257099F80A3073B10A4DC7
:1023900055F826300133934245F8263006D30A21FA
:1023A0003046FEF7F9F9002345F826300134052CB4
:1023B000BFD1B7E7240400208C0300207C5500081F
:1023C00081550008D8030020685500084C2270B5DC
:1023D00000210F4802F0F2F9FFF766F90D4A0023D9
:1023E00042F823000133132BFAD10B4E0B4D00247E
:1023F000305D0021FEF7B0F9285D00210134FEF7C1
:10240000ABF9052CF4D1064B01221A7070BD00BF48
:102410008C030020D80300207C550008815500085B
:102420002404002008B5FFF7D1FF024B01221A70E7
:1024300008BD00BF24040020F8B50C4B0C4E0D4D18
:1024400064221A700C4B00241C700C4B1C600C4B4B
:1024500001221A70274626F81470285D00210134E5
:10246000FEF77AF90A2CF6D1F8BD00BF3A04002035
:10247000260400205A580008250400203C040020AF
:102480004004002008B5FFF7D7FF024B00221A6076
:1024900008BD00BF3C040020054A1378C72B8CBF41
:1024A00000230A331370034B01221A70704700BFD8
:1024B0003A04002040040020024B1870024B012215
:1024C0001A7070473A0400204004002010B1034BFA
:1024D0001B78037009B101230B7070473A04002088
:1024E0002DE9F74F4E4F037A3B70037D13B14D4BEF
:1024F00000221A70437A13B14B4B01221A704B4AD7
:102500001168D0E9004301B914601168A1425ED896
:102510009B08052B38BF05231944A142414D2EBF0E
:1025200011601B1913602B78002B39D13E4E327885
:10253000002A35D09A464FF064085146387801F0A9
:102540001DFB3B4B1B78632B834643D8C3F16403CD
:10255000DCB24FF0000901214BFA09F2D00710D587
:10256000019102F057F990FBF8F202FB1800C0B29B
:102570000199844282BF01FA09F22BEA020B1FFA89
:102580008BFB09F10109B9F1100FE5D1294B23F8B3
:102590001AB00AF1010ABAF10A0FCED10023337042
:1025A000244E254F002436F814302A781341DB07D7
:1025B00003D50A21385DFEF7EFF801340A2CF2D179
:1025C0002B780133DBB20F2B88BF00232B7003B0B5
:1025D000BDE8F08F642BD9D0C82B28BFC823A3F146
:1025E0006404E4B24FF0000901214BFA09F2D2076A
:1025F00010D4019102F00EF990FBF8F202FB1800E2
:10260000C0B20199844282BF01FA09F24BEA020B7F
:102610001FFA8BFB09F10109B9F1100FE5D1B5E7FC
:102620004104002025040020400400203C04002038
:102630003A040020260400205A58000870B5064EBF
:10264000064D00242146307801F098FA25F8140050
:1026500001340A2CF6D170BD60040020460400202D
:1026600038B50B4B0B4D00241C700B4B1C700B4BE7
:1026700001221A700A4B1C700A4B1C60FFF7DEFF28
:10268000285D00210134FEF767F80A2CF8D138BD27
:10269000430400205A580008440400204504002048
:1026A000420400205C04002008B5FFF7D9FF024B6C
:1026B00000221A6008BD00BF5C0400200E480F4ACB
:1026C00003780F492BB9012303700A2010700B7097
:1026D00070470878137838B1632B85BF00230B70DF
:1026E0000A335A23137070471BB901230B700A2356
:1026F000F8E70A3BF6E700BF43040020440400204B
:1027000045040020034B1870034B1970034B1A70DB
:10271000704700BF4304002044040020450400200B
:1027200010B1064B1B78037011B1054B1B780B7071
:1027300012B1044B1B781370704700BF4304002094
:1027400044040020450400202DE9F84F574B027A3D
:102750001A70037D044613B1554B00221A70637A38
:102760000BB1FFF76BFF534A1168D4E9000301B9BD
:1027700010601168814272D89B08052B38BF052371
:102780004B4D194481422C782EBF11601B181360E9
:10279000002C4DD1484B1B78002B49D0474F3B783C
:1027A000002B45D002F036F8032690FBF6F606EB38
:1027B0004606861B0136DFF80891A246F6B264246D
:1027C0004FF00A085FFA8AF39E424AD802F022F8D4
:1027D00090FBF4F303FB14003B78C0B2B0EB530F53
:1027E00026D202F017F80A2690FBF6F303FB160632
:1027F00002F010F8044602F00DF8634203F00F03F4
:1028000004F00F0458BF5C4242422D4902F00F020F
:102810004FF0010300F00F0058BF504203FA04F4D8
:1028200003FA00F031F8163004435C4021F81640FA
:10283000234E244F002436F814302A781341DB0746
:1028400003D50A21385DFDF7A7FF01340A2CF2D128
:102850002B780133DBB20F2B88BF00232B70BDE830
:10286000F88F01F0D7FF90FBF4F303FB14003B78E3
:10287000C0B2834216D901F0CDFF90FBF8FB0BFBF1
:10288000180B01F0C7FF434203F00F0300F00F00E5
:1028900058BF5842012303FA00F039F81B30584062
:1028A00029F81B000AF1010A8CE700BF6004002030
:1028B000420400205C040020430400204404002063
:1028C000460400205A5800082DE9F84F837A002B5F
:1028D00065D090F808803E4D3E4E3F4F00243F4B60
:1028E000DFF808C1B8F1000F06BF1A463B463A466A
:1028F00013F804905CF82430125D15BF284630466A
:10290000314629460133095D10F804A04CF8243003
:102910004FEA840B002A4ED0B3FBF2F002FB1033D7
:10292000002945D0914240D2002B3AD1501E4CF89C
:102930000B304B434143B3FBF2F3B1FBF2F2934252
:1029400004D0274B0A21185DFDF726FF254A5BF8C6
:102950000230591C4BF80210B9F1000F34D0B1FB12
:10296000F9F309FB1313BAF1000F27D0CA4528D297
:10297000CBB909F1FF3142F80B3003FB0AF301FB3D
:102980000AFAB3FBF9F3BAFBF9F94B4504D0164B3D
:102990000A21185DFDF700FF0134052C9FD1BDE829
:1029A000F88F581EC3E7591EE5E74BF80C30C8E70F
:1029B0004BF80C30CAE74CF82420C7E74BF802303C
:1029C000EAE74BF80230E2E74BF80290E4E700BF99
:1029D000865500088B55000895550008905500084D
:1029E0009A550008780400209F55000864040020D0
:1029F000F8B500240A4F0B4E2546385D0021FDF73F
:102A0000ABFE094B46F82450185D0021FDF7A4FEEB
:102A1000064B43F824500134052CEED1F8BD00BF1D
:102A20009A550008640400209F550008780400208F
:102A3000FFF7DEBF2DE9F74F294B1D780A23B5FBC1
:102A4000F3F5052D2E464FF0000928BF0526254B2E
:102A50004946187801F092F8B9F1010F07463ADDBE
:102A6000002D3AD0204B9B5D0093204B4FF0000A85
:102A70009B5D019354464FF0640B4FF0010847FAF9
:102A80000AF0C3071ED501F0C5FE009B90FBFBFCBE
:102A90000CFB1B00C0B298423CBF08FA0AF004438A
:102AA0000AF1010A38BFA4B2BAF1100FE7D1104BF6
:102AB00023F8194009F10109B9F10A0FC7D103B090
:102AC000BDE8F08F01F0A6FE90FBFBFC0CFB1B00A9
:102AD000C0B2019BDFE70446E9E72C46E7E700BF09
:102AE0008D040020A8040020AA550008A455000861
:102AF0008E040020F8B50B4B0B4E0C4D00241C70BF
:102B00000B4B01221A700B4B1C700B4B27461C60A1
:102B100026F81470285D00210134FDF71DFE0A2CF3
:102B2000F6D1F8BD8D0400208E0400205A5800080C
:102B3000A20400208C040020A404002008B5FFF7A4
:102B4000D9FF024B00221A6008BD00BFA404002078
:102B5000054A1378312B8CBF00230A331370034BC3
:102B600001221A70704700BF8D040020A2040020CB
:102B7000024B1870024B01221A7070478D0400201E
:102B8000A204002010B1044B1B78037011B1034B59
:102B90001B780B70704700BF8D040020A20400203A
:102BA0002DE9F041224D037A2B70037D044613B1C9
:102BB000204B00221A70637A0BB1FFF73BFF1E4ACD
:102BC0001168D4E9000301B91060116881422CD862
:102BD0009B08052B38BF052319448142154C2EBF95
:102BE00011601B18136023780BB9FFF723FF134FF5
:102BF000DFF84C8000263146287800F0BFFF37F818
:102C00001630227818431041C30704D50A2118F85A
:102C10000600FDF7C1FD01360A2EECD12378013301
:102C2000DBB20F2B88BF00232370BDE8F08100BF0B
:102C3000A80400208C040020A40400208E0400209E
:102C40005A5800081F4A11682DE9F041D0E90043A5
:102C500001B914601168A14226D89B08052B38BF22
:102C600005231944A142184FDFF86C802EBF116074
:102C70001B19136000253E463B78144C132202FBBF
:102C80000353227838F813301341DB0703D50A21A8
:102C9000E8B2FDF781FD0135132DEDD12378013325
:102CA000DBB20F2B02D82370BDE8F081084B1978F6
:102CB000002222700029F7D006491A700978317075
:102CC000F2E700BFAC040020AA040020AB040020FF
:102CD000A9040020B0040020B0550008094A0023D0
:102CE00010B51370084A1370084A1370084A01247B
:102CF0001370E0B200210134FDF72EFD0C2CF8D149
:102D000010BD00BFAB040020AA040020A9040020CD
:102D1000B004002008B5FFF7E1FF024B00221A6063
:102D200008BD00BFAC04002009289CBF014B1870EF
:102D3000704700BFAA040020014B1878704700BFFD
:102D4000AA040020034A002313609380024A136000
:102D500093807047B1040020B704002070B50B4E7B
:102D60000B4D0124305D0021FDF7F6FC285D0021AC
:102D70000134FDF7F1FC062CF4D1064A0023136060
:102D80009380054A1360938070BD00BF2C570008E4
:102D900032570008B1040020B70400202DE9F04F9D
:102DA0008246807A85B0002870D09AED017ADAF8F0
:102DB00000103D4E3D4D01220DF10808F6EC016A70
:102DC000F5EE406AF1EE10FA63D0B8EE476AC6EE4F
:102DD000267AFCEEE77A17EE903A002B5BD0B1FB37
:102DE000F3F403FB1414B4EB530F34BF012300239B
:102DF000F5EC016A0DF80230F5EE406AF1EE10FADA
:102E00004BD0B8EE476AC6EE267AFCEEE77A17EEAC
:102E1000903A002B43D0B1FBF3F403FB1414B4EB52
:102E2000530F34BF0123002308F802300132062A71
:102E3000C4D11F4FDFF884901E4E01241DF80450AA
:102E400018F8043085EA030B5DBBEB1A5D425D4167
:102E50009AF8083013B15B46AB461D46BBF1000F34
:102E600006D03B5D23B90A2119F80400FDF794FC54
:102E700035B1335D23B9104B0A21185DFDF78CFC89
:102E800007F804B035550134062CD7D105B0BDE89C
:102E9000F08F0023ACE70346AAE70023C4E703460C
:102EA000C2E70025D4E700BF3C570008545700088C
:102EB000B1040020B7040020325700082C57000846
:102EC0000B380B461146082821D8DFE800F005082A
:102ED0000B0E1114171A1D001846FFF7EFBB18460A
:102EE000FFF736BE184600F0F5BE184601F026B9C9
:102EF000184600F0D7B8184600F0AABA1846FFF7EF
:102F0000CBBA184601F03AB81846FEF7EDBE704746
:102F10000B4B2DE9F04193F800800A4F0A4E0B4D00
:102F200000242146404600F029FE27F8140026F828
:102F3000140025F8140001340A2CF2D1BDE8F08108
:102F400004050020DC040020F0040020C40400205C
:102F5000364B2DE9F74F1E68354ADFF8E0E0DFF821
:102F6000E08001367243019200219A464FF0030936
:102F7000304B3EF8110033F8117058F8213049F603
:102F800037625343019A5340072291FBF2F2C2EB9E
:102F9000C2028A1A00FA02F2534083EA433383EAF8
:102FA000534383EA4313B3FBF9F505EB45054FEAB9
:102FB000410C5D1B4FF0000B01240BEB0B120A447C
:102FC000134483EA433383EA534383EA431303F00E
:102FD0000F0204FA02F20BF1010B50405D4580B282
:102FE000EBDA83F01E4383F45D1383F4665383F0BE
:102FF000390383EA433383EA534303F00F039C40CE
:103000001F41A4B2FB070C4B4CBF044320EA04044D
:103010002CF803400131094B0A2923F80C40A7D1B1
:10302000CAF8006003B0BDE8F08F00BFC004002004
:10303000B179379EDC040020F0040020C404002095
:103040006857000838B50C4B0C4D00241C700C4B15
:103050001C700C4B1C600C4B1C600C4B1C70FFF765
:1030600057FFFFF775FF285D00210134FDF774FB62
:103070000A2CF8D138BD00BFBE0400205A58000801
:10308000BD040020D8040020C00400200405002056
:1030900008B5FFF7D7FF024B00221A6008BD00BF3A
:1030A000D8040020044B1A781AB100221A70FFF7D6
:1030B0004FBF01221A707047BE0400200B4B10B5A1
:1030C00018700B4B196082B10A48134602F11401C3
:1030D00053F8044B40F8044B8B42F9D1064B52F89D
:1030E000040B43F8040B8A42F9D110BDBE04002042
:1030F000C0040020C4040020F004002010B1094BDB
:103100001B78037011B1084B1B680B6042B1074B71
:1031100003F1140153F8040B42F8040B8B42F9D16C
:10312000704700BFBE040020C0040020C40400207B
:10313000F8B5204B027A1A70037D044613B11E4B7A
:1031400000221A70637A0BB1FFF7E2FE1B4A116886
:10315000D4E9000301B910601168814229D89B08A5
:10316000052B38BF0523194481423CBF1B1813604F
:10317000134B28BF11601B780F4C1BB923780BB978
:10318000FFF7E6FE0F4E104F002536F81530227877
:103190001341DB0703D50A21785DFDF7FDFA013500
:1031A0000A2DF2D123780133DBB20F2B88BF002325
:1031B0002370F8BD04050020BD040020D8040020C1
:1031C000BE040020C40400205A5800082DE9F74F1F
:1031D000037A01934368504FDFF85C910646A3F1F0
:1031E0002108002441F24F73984576D84B4B33F8B1
:1031F00014206100002A67D0494B33F814507368DB
:103200005D43B5FBF2F5474BCA5A002A5FD0464BE7
:10321000C85A73685843B0FBF2F00A2D019B38BFBF
:103220000A250A2838BF0A2013B92B460546184636
:10323000411C54D0336859F82420395D0A284FEADC
:10324000840BA3EB020314BF4FF00A0C4FF0010CE8
:1032500031B984453ED2B0EB0C0C08BF4FF0010CE5
:103260009C4509D8314B81F00101185D3955FDF7B6
:1032700073FA336849F80B302D4B6A1CE15C3CD083
:10328000DFF8B8B032685BF824000A2D4FEA840AF0
:10329000A2EB00023AD061BB4FF00A0EB5EB0E056F
:1032A00008BF0125954209D8224A81F00101105D2D
:1032B0001955FDF751FA32684BF80A200134052CF4
:1032C00090D103B0BDE8F08F4FF0FF359BE74FF092
:1032D000FF30A2E74FF0010CC2E74FF0FF353B5D36
:1032E000002BC9D0114B00213955185DFDF734FA78
:1032F000C2E70A25D6E70125D4E70029DED0002160
:10330000E1540C4B185DFDF727FAD7E70029F2D1FD
:103310004FF0010EC2E700BF300500209A570008A9
:10332000AE570008A4570008B85700089057000887
:103330003505002095570008080500201C050020D1
:10334000F8B500240C4F0D4E2546385D0021FDF7E1
:1033500003FA0B4BA55543F824500A4B0021185D86
:10336000FDF7FAF9084BE554084B43F824500134B3
:10337000052CEAD1F8BD00BF9057000830050020A9
:103380000805002095570008350500201C05002081
:10339000FFF7D6BF124A002370B505461C461646F5
:1033A000995CA94208BF013403F1010308BFE4B2EC
:1033B0000A2BF5D184B101F02DFA90FBF4F303FB55
:1033C0001404E4B20020335CAB4202D134B1013CBE
:1033D000E4B201300A28F6D14FF0FF3070BD00BFD3
:1033E0003D05002038B50E4B0E480F4D00241C60E3
:1033F0005C601C811422214601F0E0F90B4B1C702B
:103400000B4B01221A700B4B1C700B4B1C60285D80
:1034100000210134FDF7A0F90A2CF8D138BD00BF16
:103420003D0500204E0500205A5800083B050020AD
:103430003C0500203A0500204805002008B5FFF7AC
:10344000D1FF024B00221A6008BD00BF48050020D2
:10345000F8B5234D234E2C7884B10020FFF79AFF56
:10346000002805DB204B01221A54337813443370B3
:103470003378092B01D900232B70F8BD0120FFF709
:1034800089FF071E26DB184BDC5501F0C3F9044603
:1034900001F0C0F9634203F00F0304F00F0458BFBA
:1034A0005C42414201F00F01104A00F00F0058BF8A
:1034B00048420123E4B2C0B203FA04F403FA00F074
:1034C00032F8173004435C40337822F8174023B1B8
:1034D000013B33703378002BCFD10123CCE700BF01
:1034E0003C0500203B0500203D0500204E05002046
:1034F000F0B40026144F344640FA06F505F0010CEE
:10350000ED0748BF651C06F807C006F1010648BF75
:10351000ECB20A2EF0D18C4228BF0C460B490C703D
:103520000B490A7053B10B4A03F1140153F8040B11
:1035300042F8040B8B42F9D1F0BC704714221946B3
:103540000448F0BC01F03AB93D0500203B050020DD
:103550003C0500204E050020F0B588B10024124E35
:103560002546012714F806C0BCF1000F04D007FA65
:1035700004FC45EA0C05ADB201340A2CF2D10580F9
:1035800011B10A480078087012B109490978117020
:1035900043B1084A02F1140152F8040B43F8040B3A
:1035A0008A42F9D1F0BD00BF3D0500203B05002057
:1035B0003C0500204E0500202DE9F041204D037A06
:1035C0002B70037D13B11F4B00221A701E4A116825
:1035D000D0E9004301B914601168A1422ED89B08BC
:1035E000052B38BF05231944A14238BF1B19174EBC
:1035F000174FDFF850802CBF116013600024A35DCB
:103600008BB92146287800F0B9FA37F814305840C1
:1036100098F8003080B21841C30704D50D4B0A2139
:10362000185DFDF7B9F801340A2CE8D1054A137882
:103630000133DBB20F2B88BF00231370BDE8F0818C
:103640004C0500203A050020480500203D050020DB
:103650004E0500205A5800082DE9F041551E174626
:10366000EA1C1E4680460C464B6808D91BB1002157
:103670006160FDF771F800232360BDE8F0812BB194
:103680009E4218D300216160FDF766F823681E444E
:10369000B7422660F1D863684BB901214046FDF777
:1036A0005BF80A2F0AD8002D08BF01256560226843
:1036B000D21B2260E1E79B1B4B60E7E70A25F5E799
:1036C00070B5282200210B480B4E0C4D01F076F806
:1036D000282200210A4801F071F80024305D002101
:1036E000FDF73AF8285D00210134FDF735F8052C87
:1036F000F4D170BD64050020D0570008D5570008EC
:103700008C050020024B00221A70FFF7D9BF00BFC2
:10371000620500202DE9F84F437A05464BB14F4929
:103720000B780322013393FBF2F202EB42029B1A65
:103730000B702B7D0BB1FFF7C3FF6C68002C7DD0A5
:1037400007EE904ADFED466A444AF8EE677A117850
:10375000444A86EEA77A02EB810241F270739C42E2
:10376000A04628BF9846B8F1210F38BF4FF0210876
:10377000D2ED007A77EE277AF5EEC07AF1EE10FA04
:103780005ED986EEA77AFCEEC77A17EE904A9C4285
:1037900028BF1C46212C38BF2124DFF8DCA0D5F837
:1037A000109000250AEB85033AF825B05E8808F1F1
:1037B000FF33033346D8002E44D032460023ABFB00
:1037C000080101F0CFF8002341F270728B4208BF6C
:1037D00082423AD3002908BF21282CBF074621275F
:1037E000631E033334D89EB332460023ABFB04017F
:1037F00001F0B8F8002341F270728B4208BF824298
:1038000029D3002908BF21282CBF064621261649A6
:1038100016484FEAC50B405D4B463A465944FFF700
:103820001BFF134913484B46405D3246594401354E
:10383000FFF712FF052DB5D1BDE8F88FA046ACE724
:103840001C46AAE74FF0FF37CAE741F27077C7E797
:103850004FF0FF36DBE741F27076D8E762050020D3
:1038600000606A47C457000864050020D05700086C
:103870008C050020D5570008DA57000810B54C24F5
:1038800022460021044800F099FF22460021034807
:10389000BDE8104000F092BFB405002000060020F3
:1038A0002DE9F04FDFF8B081D0E9004B002685B05C
:1038B00007464546B14658F82630F0B24FEA860A28
:1038C00033B1A34204D80021FCF746FF4AF8089020
:1038D00001360C2EEFD1BB7A83B1286828B90121BB
:1038E000FCF73AFF04F10A032B60AB6933B90121FD
:1038F0000620FCF731FF04F10A03AB613A7A524B20
:1039000052485349DFF854A1002A0CBF1A46024618
:103910000292504A0BBF0E461646904688460196C4
:1039200008BF034608F1FF380127002218F8011FDD
:103930005FFA87FC39B3DE194FEA870916F8016C84
:103940000BFB06F6B6FBF1F65AF82710002E08BF5F
:10395000012609B1A14216D855F80900002864D102
:10396000012160460393FCF7F7FE04F10A0245F8D3
:1039700009205AF80920039B002A08BF2246164452
:103980004AF8096001220137052FCFD1019BDFF8EA
:10399000CC9003F1FF3A072700231AF8011F5FFAC2
:1039A00087FC39B3029E3E444FEA870816F8076C3D
:1039B0000BFB06F6B6FBF1F659F82710002E08BFF0
:1039C000012609B1A14215D855F80800A0BB012174
:1039D00060460192FCF7C0FE04F10A0345F8083086
:1039E00059F80830019A002B08BF23461E4449F8B5
:1039F0000860012301370B2FCFD152B16A6942B958
:103A0000012105200193FCF7A7FE04F10A02019BA6
:103A10006A613BB1EB6A2BB901210B200A34FCF738
:103A20009BFEEC6205B0BDE8F08F19B10E444AF878
:103A30000960A8E72644FAE719B10E4449F808607E
:103A4000D8E72644FAE700BFFA570008F6570008FF
:103A5000F2570008EE57000800060020B4050020C9
:103A600010B54C220021084800F0A8FE4C2200218D
:103A7000064800F0A3FE0024E0B200210134FCF768
:103A80006BFE0C2CF8D110BDB40500200006002000
:103A9000F8B5837A2DED028B002B3BD0027A1F4CB8
:103AA0001F4B9FED208A204F002A16BF25461D463A
:103AB0001C460026F0EE488A00F0ACFE07EE900AA5
:103AC000F8EEE77AB4EC017A67EE887AB4EEE77A3A
:103AD000F1EE10FA03DD0A21B85DFCF75DFE013658
:103AE000052EE9D1114E002400F094FE07EE900A55
:103AF000F8EEE77AB5EC017A67EEA87AB4EEE77AE9
:103B0000F1EE10FA03DD0A21305DFCF745FE0134C9
:103B1000052CE9D1BDEC028BF8BD00BF00580008B0
:103B20001458000800000030285800082D580008DC
:103B300070B5074E074D0024305D0021FCF70CFEE8
:103B4000285D00210134FCF707FE052CF4D170BD7F
:103B5000285800082D58000808B5FDF7A5FD80F08D
:103B60005E4080F42D0080F43E4080F0EF0000F0D5
:103B70002DFEBDE80840FFF7DBBF0000092909D88A
:103B8000431E584258410A2303FB0011024B33F8ED
:103B90001100704700207047325800082DE9F843A3
:103BA000837A002B46D0037A234E244AC768DFF875
:103BB0009890002B224B18BF1E46224B4FF000045A
:103BC0000CBF90469846254656F8242052B1B7FBC4
:103BD000F2F302FB13732BB90A2119F80400FCF766
:103BE000DBFD01250134042C05F00105ECD1002694
:103BF000DFF85890344658F8262052B1B7FBF2F35C
:103C000002FB13732BB90A2119F80600FCF7C4FD57
:103C100001240136042E04F00104ECD11DB10A2167
:103C20000520FCF7B9FD2CB10A210B20BDE8F843B3
:103C3000FCF7B2BDBDE8F88374580008945800083A
:103C40008458000864580008A4580008A9580008BF
:103C500070B5074E074D0024305D0021FCF77CFD58
:103C6000285D00210134FCF777FD052CF4D170BDEF
:103C7000A4580008A9580008FFF7EABF0A4A38B557
:103C800000241470094A0A4D14700A4A0121117067
:103C9000094A1470094A1460285D00210134FCF7B8
:103CA0005BFD0A2CF8D138BD5506002056060020D1
:103CB0005A580008570600204C06002050060020E5
:103CC00008B5FFF7DBFF024B00221A6008BD00BFFA
:103CD000500600200E480F4A03780F492BB90123E4
:103CE00003700A2010700B7070470878137838B191
:103CF000632B85BF00230B700A335A231370704760
:103D00001BB901230B700A23F8E70A3BF6E700BF53
:103D1000550600205606002057060020034B187059
:103D2000034B1970034B1A70704700BF55060020F3
:103D3000560600205706002010B1064B1B78037072
:103D400011B1054B1B780B7012B1044B1B7813702B
:103D5000704700BF55060020560600205706002079
:103D60002DE9F843274C037A2370037D13B1264BCA
:103D700000221A70254A1168D0E9005301B9156074
:103D80001168A94228D89B08052B38BF0523194480
:103D9000A9421D4FDFF87C802EBF11605B191360B4
:103DA00000263D4631462078FFF7E8FE3B78184173
:103DB000C30707D598F8003083B9154B0A21985DE1
:103DC000FCF7EAFC01360A2EECD12B780133DBB28A
:103DD0000F2B88BF00232B70BDE8F883DFF83890E5
:103DE00099F80030002BE8D000F014FD642390FB1C
:103DF000F3F202FB130099F80030C0B28342DCD921
:103E0000E0E700BF540600204C06002050060020CA
:103E10005A5800085506002056060020F0B500222A
:103E200091B0134641FA03F4E40703F1010348BFDC
:103E30000132102BF6D10168214C43F2390304FB07
:103E400001315125B1FBF5F305FB1313283B534317
:103E5000642593FBF5F31344102BA8BF10230160D6
:103E600023EAE373002225464DF822200132102A6E
:103E7000FAD10F2243F2390C561C05FB01C110AFD9
:103E8000B1FBF6F406FB141407EB84045DF8226022
:103E900054F8407C4DF82270013A44F8406CEBD164
:103EA0000160012410469A4201D111B0F0BD5DF8C5
:103EB000221004FA01F1084380B20132F3E700BF97
:103EC0006D4EC641F7B50D4F0D4E0E4D01900024BD
:103ED00021463878FFF752FE014601A8FFF79EFF02
:103EE00026F81400014601A8FFF798FF25F81400F2
:103EF00001340A2CECD103B0F0BD00BF70060020E5
:103F0000580600207A06002038B50C4B0C480D4DA1
:103F100000241C700C4B1C600C4B1C700C4B18606C
:103F20000C4B1C600C4B1C70FFF7CCFF285D002174
:103F30000134FCF711FC0A2CF8D138BD78060020BA
:103F400001EEFFC05A5800086C0600208E060020C3
:103F500090060020740600207006002008B5FFF7C8
:103F6000D3FF024B00221A6008BD00BF6C06002080
:103F7000014B00221A70704778060020074803683A
:103F80005A1C074B026053435940064B064A4B40AC
:103F90001360064B01221A70704700BF74060020A0
:103FA000B179379E1DE9C3A5900600208E0600203A
:103FB000024B1860024B1970704700BF900600203A
:103FC0008E06002010B1044B1B68036011B1034B37
:103FD0001B780B70704700BF900600208E060020F3
:103FE0002DE9F843294B027A1A70037D04460BB180
:103FF000FFF7BEFF637A1BB1254B1868FFF762FF1E
:10400000244A1168D4E9000301B9106011688142A3
:104010002ED89B08052B38BF05231F4C1F4F267831
:10402000DFF88080DFF88090194481423CBF1B1884
:10403000136006F00F034FF0010628BF11609E4089
:10404000002523785F2B94BF38F8153037F81530EA
:10405000334204D00A2119F80500FCF79DFB013515
:104060000A2DEED123780133DBB21A0602D4237075
:10407000BDE8F88300252570094C2378002BF7D084
:10408000034B1868FFF71EFF2570F1E7700600204C
:10409000900600206C060020780600207A0600209A
:1040A0008E060020580600205A580008114A38B5DC
:1040B00000231370104A02211170104A012111705F
:1040C0000F491A4621F8132001330A2BFAD10D4B60
:1040D0000D4D4FF0000119700C4B1A700C4B002461
:1040E0001A60285D00210134FCF736FB0A2CF8D158
:1040F00038BD00BF9E0600209F060020A0060020BD
:10410000A20600209D0600205A58000894060020B0
:104110009806002008B5FFF7C9FF024B00221A607D
:1041200008BD00BF98060020024A00231370024A0F
:1041300013707047940600209D0600200A4A0B4B1E
:10414000117819B901211170022203E01A78022AAC
:1041500005D104221A70064B01221A707047042AF6
:10416000F2D10822F6E700BF9E0600209F0600203D
:10417000A006002010B504460C4804700C480170DD
:104180000C490A7063B10C4A03F1140153F8040B93
:1041900042F8040B8B42F9D10CB9084B1C7010BDCE
:1041A00014221946044800F009FBF5E79E0600209A
:1041B0009F060020A0060020A20600209D060020E9
:1041C00010B510B10A4C2478047011B10948007878
:1041D000087012B108490978117043B1074A02F119
:1041E000140152F8040B43F8040B8A42F9D110BDB4
:1041F0009E0600209F060020A0060020A2060020A8
:104200002DE9F0473E4E037A3370037D0BB1FFF783
:104210008BFF3C4A1168D0E9004301B91460116872
:10422000A14263D89B08052B38BF05231944A1423E
:10423000354F2EBF11601B1913603B786BB3334BA6
:104240001B78DFF8D490DFF8D4A04FF0010808FA0B
:1042500003F800244D4621463078FFF78FFC39F8EB
:104260001430584080B210EA080F04D00A211AF81E
:104270000400FCF791FA01340A2CECD13B78002BB6
:1042800036D0234B1978012932D9204A13780133CB
:10429000DBB2994203D9137028E01E4BD0E700230C
:1042A000137000F0B7FA90FBF4F606FB140600F06A
:1042B000B1FA044600F0AEFA634203F00F0304F0D3
:1042C0000F0458BF5C42424202F00F024FF001035C
:1042D00000F00F0058BF504203FA04F403FA00F054
:1042E00035F8163004435C4025F81640BDE8F087E9
:1042F000084A13780133DBB20F2B88BF0023CAE7CB
:104300009C060020980600209E0600209D060020A6
:104310009F06002094060020A20600205A5800089C
:1043200010B54C2200210B4800F048FA4C22002125
:10433000094800F043FA0024E0B200210134FCF700
:104340000BFA0C2CF8D1054A03231370044A13709E
:1043500010BD00BF04070020B80600201000002098
:10436000110000202DE9F04F437A076885B006461A
:104370005BB15C4A1378013303F0070313705A4AA8
:104380001378073303F007031370DFF86891DFF841
:104390005CA10024C84659F82430E0B2A50073B1EE
:1043A000BB420CD855F80A3033B90121FCF7D4F9D7
:1043B00007F10A0345F80A30002348F805300134B4
:1043C0000C2CE8D1494D0024A946A24655F82430CA
:1043D000E0B24FEA840B33B1BB4204D80021FCF7B2
:1043E000BBF94BF805A001340C2CEFD1B37A002BAC
:1043F0005FD03C4A3E4B1278F56853F82220019278
:10440000394A1278013D53F82230029300242246A3
:1044100005F0010B59F82410E0B2A30071B958F867
:10442000241059B902EB070A02BB01210393FCF7E0
:1044300093F9039B0AF10A0149F80310052C3ED1B8
:104440000624002105F0010A64231DE0BCF1320FAF
:1044500085BFACF1320C03FB0CFC0022642384BF4B
:104460009CFBF3F222EAE2720134D3E748F803A09E
:10447000E4E7322A85BF323A5143002191FBF3F140
:1044800088BF21EAE171013459F82420E0B24FEAF3
:10449000840B62B958F824204AB9CD1961B90121B9
:1044A0000A350193FCF758F949F80B50019B0B2C86
:1044B0000ED105B0BDE8F08F48F80B50F7E7019A30
:1044C000736812F804C0BBF1000FBFD15A46CBE7A6
:1044D000029A7168224412F8062CBAF1000FC8D172
:1044E0005146D0E71000002011000020B80600203F
:1044F000D85800080407002010B54C2200210B48B2
:1045000000F05CF94C220021094800F057F9002422
:10451000E0B200210134FCF71FF90C2CF8D1054A58
:1045200003231370044A137010BD00BF040700205A
:10453000B806002010000020110000200728064BBC
:1045400086BF03221A7018700729044B8ABF032202
:1045500019701A70704700BF100000201100002071
:1045600010B1044B1B78037011B1034B1B780B7017
:10457000704700BF1000002011000020132804D84D
:10458000024B53F8203003B11847704748590008D0
:10459000132804D8024B53F8203003B11847704752
:1045A000F858000810B5014604461120FCF7D4F86D
:1045B000014B1C7010BD00BF5A070020094B10B5FD
:1045C0001C7874B9084B1C70084B4FF4FA721A60CF
:1045D000FDF76AF8064B18602046BDE81040FFF76B
:1045E000E1BF10BD58070020500700201800002030
:1045F00054070020024B00221A70FFF7DFBF00BFF4
:104600005807002013280BD8064B1A7882421A4606
:1046100005D00549097811B91870FFF7CFBF1070A0
:10462000704700BF5107002058070020454B1B78FA
:104630002DE9F04107462BB1434B1878BDE8F04116
:10464000FFF7B0BF414D2A78132A44D8531CDBB280
:10465000092B06D90A2B3ED0142B3ED0A2F1080319
:10466000DBB23B4C3B4E2278DFF8F4809A420DD30C
:104670003368FB1AB3F5C87F31D3374B376000205E
:104680004FF4FA7220701A60FFF78CFF336898F8C5
:104690000020FB1A72BB304A1268002A08BF0122B0
:1046A0009A4216D82B782278132B1ED80133DBB20E
:1046B000092B1AD90A2B1AD0142B18D0002A14BF90
:1046C00078234FF49663254A01201360FFF76AFFB1
:1046D0003760BDE8F0810123C3E70223C1E798F802
:1046E0000030002BF5D00020A8E77823EBE74FF44B
:1046F0009663E8E7194A12689A42EAD8002094F8CB
:104700000080FFF74FFF23783760013323702B7849
:10471000132B11D80133DBB2092B0DD90A2B0ED084
:10472000142B0CD0B8F1000F40F28A2318BF4FF4BD
:10473000FA73094A1360CCE74FF4FA73F9E740F2D1
:104740008A23F6E758070020590700205107002068
:1047500050070020540700201800002014000020FB
:104760005A070020064B1A781870064B197010B1C2
:104770000846FFF717BF0AB1FFF720BF704700BF19
:10478000580700205907002030B50024A24201D16B
:10479000002007E0035D01340D1915F8015CAB4200
:1047A000F4D0581B30BD10B5431E0A44914200D1CD
:1047B00010BD11F8014B03F8014FF7E7024403461F
:1047C000934200D1704703F8011BF9E738B50D4B50
:1047D0001C68A36B05467BB9182000F04FF80A4A05
:1047E0000A4BA063C0E90023094B83600B2383813C
:1047F00001220023C0E90423A36B00221D615A613A
:1048000038BD00BF1C0000200E33CDAB34126DE666
:10481000ECDE050038B5134B1C68A36B7BB9182080
:1048200000F02CF8104A114BA063C0E90023104B94
:1048300083600B23838101220023C0E90423A16B41
:104840000C480A694B690C4C504304FB0300A2FB63
:1048500004230344541C43F10005C1E9044525F039
:10486000004038BD1C0000200E33CDAB34126DE685
:10487000ECDE05002DF451582D7F954C024B01467E
:10488000186800F003B800BF1C00002070B5CD1CF4
:1048900025F0030508350C2D38BF0C25002D0646E4
:1048A00001DBA94203D90C233360002070BD00F066
:1048B00057F8214A1468214691B9204C23681BB946
:1048C000304600F03DF820602946304600F038F8C8
:1048D000431C24D10C233360304600F042F8E4E757
:1048E0000B685B1B18D40B2B0FD90B60CD50CC1869
:1048F000304600F036F804F10B00231D20F00700CD
:10490000C31AD3D05A42E250D0E78C424B6816BF4C
:10491000636013600C46EBE70C464968CCE7C41CA7
:1049200024F00304A04205D0211A304600F008F814
:104930000130CFD02560DBE75C0700206007002056
:1049400038B5064C002305460846236000F08AF976
:10495000431C02D1236803B12B6038BD68070020D7
:104960007047704753B94AB9002908BF00281CBFD7
:104970004FF0FF314FF0FF3000F072B9ADF1080C8D
:104980006DE904CE00F006F8DDF804E0DDE902236D
:1049900004B070472DE9F047089E04468846002B76
:1049A0004BD18A42154667D9B2FA82F24AB1C2F1B6
:1049B000200701FA02F320FA07F7954047EA0308B7
:1049C00094404FEA154E230CB8FBFEF71FFA85FC06
:1049D0000EFB178843EA084307FB0CF1994209D9FB
:1049E000EB1807F1FF3080F01B81994240F21881EB
:1049F000023F2B445B1AA4B2B3FBFEF00EFB103354
:104A000044EA034400FB0CFCA44509D92C1900F12D
:104A1000FF3380F00781A44540F2048102382C4422
:104A200040EA0740A4EB0C0400271EB1D440002349
:104A3000C6E900433946BDE8F0878B4209D9002E0C
:104A400000F0EB800027C6E9000138463946BDE892
:104A5000F087B3FA83F7002F47D18B4202D382420B
:104A600000F2FA80841A61EB030301209846002EBD
:104A7000E0D0C6E90048DDE702B9FFDEB2FA82F213
:104A8000002A40F08F80491B4FEA154E1FFA85F827
:104A90000127B1FBFEFC230C0EFB1C1143EA014372
:104AA00008FB0CF1994207D9EB180CF1FF3002D248
:104AB000994200F2CD808446591AA3B2B1FBFEF0B0
:104AC0000EFB101443EA044408FB00F8A04507D984
:104AD0002C1900F1FF3302D2A04500F2B68018462F
:104AE000A4EB080440EA0C409FE7C7F1200CBB4050
:104AF00022FA0CFE4EEA030E01FA07F420FA0CF536
:104B000021FA0CF34FEA1E482543B3FBF8F92C0CAD
:104B100008FB19331FFA8EFA44EA034309FB0AF42F
:104B20009C4202FA07F200FA07F10BD91EEB0303CD
:104B300009F1FF3080F087809C4240F28480A9F127
:104B4000020973441B1BADB2B3FBF8F008FB103332
:104B500045EA034400FB0AFAA24508D91EEB040407
:104B600000F1FF336BD2A24569D90238744440EAA0
:104B70000940A0FB0289A4EB0A044C45C2464B46FF
:104B800054D351D0002E69D0B1EB0A0564EB030475
:104B900004FA0CFCFD40FC404CEA0505C6E9005453
:104BA000002747E7C2F1200320FA03F7954001FAF6
:104BB00002F021FA03F34FEA154E3843010CB3FB20
:104BC000FEF71FFA85F80EFB173341EA034107FB96
:104BD00008F38B4204FA02F407D9691807F1FF3C85
:104BE0002FD28B422DD9023F2944CB1A81B2B3FB7D
:104BF000FEF00EFB103341EA034100FB08F38B4249
:104C000007D9691800F1FF3C17D28B4215D9023839
:104C10002944C91A40EA07473BE73746304609E7C7
:104C20000746E7E61846FBE64145ABD2B8EB020A79
:104C300069EB0E0201381346A4E76046E9E718461F
:104C400095E76746D1E781467CE702382C4447E781
:104C5000ACF1020C2B442FE7384608E73746E9E66B
:104C6000704700BF044A05491368002B08BF0B4674
:104C70001844106018467047640700206C07002035
:104C800001290CD002D3022911D070470A4A1368B7
:104C900003431360536823EA000050607047064ADC
:104CA000136823EA0003136053681843F5E7024AC8
:104CB00013680343F7E700BF083C0140034A136849
:104CC000034313605368184350607047003C014031
:104CD000014B1860704700BF143C0140014B1B683A
:104CE00018407047143C01402DE9F04FDFF8B8C080
:104CF000DFF8B8E0DFF8B880DFF8B890DFF8B8A0E8
:104D0000DFF8B8B00022012303FA02F4044233D0E2
:104D1000214CA14237D00DD849451DD003D8594563
:104D20001BD0002319E01D4B99422AD05145F8D1E0
:104D3000042312E01A4B994229D007D8414524D0C8
:104D4000A3F580639942ECD1072306E0614520D0AA
:104D50007145E6D10A2300E00223124C04EB9205D0
:104D6000AD0002F00306B6002C680F27B74024EA16
:104D70000704B3401C432C600132102AC3D1BDE8A4
:104D8000F08F0323E9E70523E7E70623E5E7082398
:104D9000E3E70923E1E700BF00140240000C0240F2
:104DA00000200240024E0010002402400028024071
:104DB00000180240000802400010024000040240B7
:104DC000034B044A1A6002F188321A60704700BF30
:104DD000043C024023016745024A136843F0004344
:104DE00013607047103C0240044B1A6822F4407272
:104DF0001A601A6842EA002018607047103C0240AE
:104E000070B50A4C0E46054600F0E4FA0220FFF7A2
:104E1000EBFF236843F0010323602E6000F0DAFA11
:104E2000236823F00103236070BD00BF103C0240E3
:104E300038B50C46054600F0CDFA2046114CFFF778
:104E4000D3FF23680B2D88BF043523F0F8032360BC
:104E500088BFEDB22368ED00EDB21D4325602368E5
:104E600043F002032360236843F48033236000F09F
:104E7000B1FA236823F002032360236823F0F803C8
:104E8000236038BD103C0240816170470904816194
:104E900070470069084070472DE9F0410568C46813
:104EA00000264FF0030E43FA06F7FF070FD57700F1
:104EB0000EFA07FC6FEA0C0C01FA07F80CEA05057C
:104EC0000CEA040402FA07F748EA05053C430136F8
:104ED000102EE8D10560C460BDE8F0810129416869
:104EE0000CBF19439943F0B5416081680024032643
:104EF00043FA04F5ED0707D5650006FA05F721EA40
:104F0000070102FA05F529430134102CF0D1816024
:104F1000F0BD430903F1804303F50E3300F01F0297
:104F2000196801209040084318607047430903F155
:104F3000804303F50E3300F01F02196801209040F2
:104F4000014319601A6822EA0000186070470000E7
:104F5000062822D8DFE800F004171C090E131500FC
:104F60000F4B1868C0F3406070470D4B1868C0F3D2
:104F7000404070470A4B1868C0F340007047094B27
:104F8000F9E7094BF7E7064B1868C0F34070704724
:104F9000034B1868C0F3C06070470020704700BF23
:104FA00000380240703802407438024008B50246AA
:104FB0001046FFF7CDFF0028FAD008BD06280AD812
:104FC000DFE800F004181D0A0F1416000E4A1368DB
:104FD00043F08073136070470B4A136843F48033C7
:104FE000F8E7094A136843F00103F3E7074AF9E7D2
:104FF000074AF7E7044A136843F08053EAE7024A96
:10500000136843F08063E5E70038024070380240DF
:105010007438024006280AD8DFE800F004181D0A98
:105020000F1416000E4A136823F080731360704744
:105030000B4A136823F48033F8E7094A136823F016
:105040000103F3E7074AF9E7074AF7E7044A136859
:1050500023F08053EAE7024A136823F08063E5E710
:10506000003802407038024074380240034A136826
:1050700023F0030318431060704700BF0838024054
:10508000034A136823F4604343EA403010607047DA
:1050900008380240034A136823F4E05343EA8020AF
:1050A0001060704708380240034A136823F0F00389
:1050B00043EA0010106070470838024010B547F608
:1050C000C07404EA811100F03F001B0603F0706316
:1050D00001431943029B5408022B04F1FF344FEAA9
:1050E000044438BF022304F440341B0703F0E043B8
:1050F00021431943014B196010BD00BF0438024021
:105100001B0603F0706300F03F0043F48003034389
:1051100047F6C07000EA81110B435108009A01392B
:10512000022A4FEA014138BF022201F4403112073E
:1051300002F0E0420B431343014A1360704700BF83
:105140000438024037B504460420FFF737FF042037
:10515000FFF72CFF0020FFF789FFE379012B05D132
:105160000320FFF72BFF0320FFF720FF40F61C0072
:10517000FFF7CFFEE07B00F05FF9207BFFF794FFA5
:10518000607BFFF787FFA07BFFF77AFF254A6188E6
:10519000136823F080731360E379A579227920786E
:1051A0000095012B637931D1FFF7AAFF1D4A1368DF
:1051B00043F0807313600020FFF7F8FEA3685A05E0
:1051C00027D500F019F9A3689B0525D500F024F92F
:1051D000A06800F007F90220FFF748FF124A1368A1
:1051E000C3F38103022BFAD1104B22691A60104BD2
:1051F00062691A600F4BA2691A60E379012B0ED124
:10520000042003B0BDE83040FFF704BFFFF756FFAE
:10521000CCE700F0F9F8D6E700F006F9D8E703B0DC
:1052200030BD00BF00380240083802408000002036
:10523000840000208800002000F14040084BB0F5B9
:10524000005F1B6806D8074A106813F4E05F18BFB8
:1052500040007047044A13F4604F1068F7E700BF3E
:10526000083802408400002088000020C3681943E9
:10527000C160704703690B4214BF012000207047D2
:10528000C9430161704710B50468134324F45C748A
:105290000B432343036010BD036843F080030360A6
:1052A0007047036843F001030360704781627047F1
:1052B000C1627047FEE7704738B51B491B4C1C485C
:1052C0000022531883421BD31A4A002193421BD356
:1052D000194A1A4C13681A4D43F400731360536F44
:1052E00043F470035367AC4211D3164C164DAC42D5
:1052F00011D3FCF7DFF9154C154DAC420FD338BD77
:10530000135953500432DCE719600433DEE754F8D4
:10531000043B9847E7E754F8043B9847E7E754F81D
:10532000043B9847E9E700BF00000020105A00083E
:105330008C0000206C07002014ED00E0085A0008E3
:10534000085A0008085A0008085A0008085A0008B5
:10535000085A0008024B20F07F401860704700BFD9
:1053600014E000E0044A136800F0040023F0040392
:1053700003431360704700BF10E000E0024A136867
:1053800043F002031360704710E000E0024A136824
:1053900043F001031360704710E000E0054B420941
:1053A00003EB820300F01F00012202FA00F01860F4
:1053B000704700BF00E100E0054B420903EB8203A8
:1053C00000F01F00012202FA00F01860704700BFD1
:1053D00080E100E0024A1368DB03FCD4704700BFA1
:1053E0000C3C0240034A136823F00F03184310607B
:1053F000704700BF003C0240024A136843F48063D8
:1054000013607047003C0240024A136823F4806333
:1054100013607047003C0240024A136843F4007373
:1054200013607047003C0240024A136823F4007383
:1054300013607047003C0240044A1368800323F461
:10544000404380B218431060704700BF00700040B6
:1054500091220008C9280008CD310008913A0008BF
:105460009D3B000865430008A13800089D2D0008F9
:105470001537000865200008452C0008492700085A
:10548000A12B0008613D00080142000831310008ED
:10549000B9350008E1240008E13F0008F51D0008C7
:1054A000000402400100000000040240020000006D
:1054B00000000240040000000004024000800000E0
:1054C00000040240200000000004024040000000F0
:1054D00000040240004000000004024000200000E0
:1054E000000402400010000000040240000100001F
:1054F000000402400002000000040240000400001A
:105500000004024004000000000000000000000051
:1055100000000000000000000004024080000000C5
:10552000000402400008000000000240008000006B
:1055300000000240080000000000A04000002041E0
:10554000000070410000A0C0000020C10000204108
:105550000000A041000020C10000F04100002041F7
:105560000100010000000000020000000300000034
:105570000400000005000000060000000102030412
:10558000050708090A0B02030304050304050607BF
:10559000050708090B0406070809010203040507AB
:1055A00008090A0B00040C182638000816283E5576
:1055B0000000888822222222AAAAFFFF0000890870
:1055C00022020220AA2A7FFF000000000000000043
:1055D0000000000000000000808022200221AAAA12
:1055E000CCCC0000018022000021AA2AC8CC0000F7
:1055F0000000000000000000000000000000F0F0CB
:105600000F0F3333CCCCFFFF0000F1E00F07332343
:10561000CC4CFBFF00000000000000000000000078
:10562000000000000F0F3333CCCC00FFFF00000060
:105630000F0E3323CC8C007FBF0000000000000061
:10564000000000000000000000000080800008084A
:10565000AAAAFFFF0000010000000800AA2AFDFF1F
:10566000000000000000000000000000000000003A
:105670008080000110045555F0F00000810000000A
:1056800010005515F0E000000000000000000000D0
:10569000000000000000008000000000AAAAFFFF38
:1056A0000000010000000000AA2AFBFF000000002B
:1056B0000000000000000000000000000880200042
:1056C00000005555CCCC0000090000000000551525
:1056D000C8CC000000000000000000000000000036
:1056E0000000109122221111AAAAFFFF00001181CF
:1056F00022021101AA2AFDFF0000000000000000A4
:10570000000000000000000044882222511455557A
:10571000CCCC00004508220251045515CC8C000069
:105720000000000000000000000000000001020373
:105730000405060708090A0B0000803F000000402E
:10574000000080400000003F0000803E000040401C
:105750000000803F0000003F0000803E000000404D
:10576000000080400000C040020000000300000074
:1057700005000000070000000B0000000D00000005
:105780001100000013000000170000001D000000C1
:1057900001020304050708090A0B060008000100BE
:1057A00005000500070004000300020004000100DA
:1057B00001000800060004000100030005000700C6
:1057C00009000000CDCCCC3D0000803F0000A0408F
:1057D00001020304050708090A0B0100010001008A
:1057E00002000200010001000300030001000304A5
:1057F00005070507060B0202030402030404000068
:10580000CDCCCC3DCDCC4C3E9A99993ECDCCCC3E26
:105810000000003F0000003F0000803E0000003E0E
:105820000000803D0000003D010203040507080957
:105830000A0B888889082222220222220220AAAA90
:10584000AA2AFFFF7FFF8080018022202200022100
:105850000021AAAAAA2ACCCCC8CC010702080309B5
:10586000040A050B04000000060000000800000008
:105870000900000001000000020000000300000019
:10588000050000000200000001000000030000000D
:1058900004000000020000000300000005000000FA
:1058A0000700000001020304050708090A0B323251
:1058B000323232343536373837393B3D3F3A3D4066
:1058C00043463E4144474A4245484B4E46494C4F69
:1058D000524B4E5154570000AE580008B3580008C0
:1058E000B8580008BD580008C2580008C75800083A
:1058F000CC580008D158000825240008312A000897
:1059000091330008593B0008793C00082143000806
:105910007D380008452D000805370008891F00085C
:10592000152D0008A92600083D2B0008C13C0008E1
:1059300015410008913000083D3400088524000816
:105940005D3F0008D51C0008CD230008F1290008A0
:1059500041330008313B0008513C0008F94400087D
:10596000613A00085D2D0008C13600080D200008CE
:10597000DD2C000861260008F52A00087D3C00089F
:10598000AD40000845300008E53300083924000820
:10599000093F0008611C00081900500104070001BC
:1059A000020600000004000300BD010580DE800245
:1059B00000BD01051900C00002040001030600003B
:1059C0000004000300D8B805006CDC0200D8B8055C
:1059D000190050010207000105060000000504033C
:1059E000007A030A80DE800200BD0105190068010B
:1059F0000208000105060000000504030095BA0A2C
:085A000040A5AE02804A5D05DD
:085A08008CEFFF7F010000009C
:105A100059030000E8030000CDCCCC3DCDCCCC3DFB
:105A20000303000078000000F401000020000020C3
:105A30000000000000000000000000000000000066
:105A40000000000000000000000000000000000056
:105A50000000000000000000000000000000000046
:105A60000000000000000000000000000000000036
:105A70000000000000000000000000000000000026
:105A80000000000000000000000000000000000016
:0C5A90000024F4000024F4000024F400C2
:04000005080052B9E4
:00000001FF
